{"contracts/lzApp/mocks/LZEndpointMock.sol":{"LZEndpointMock":{"abi":[{"inputs":[{"internalType":"uint16","name":"_chainId","type":"uint16"}],"stateMutability":"nonpayable","type":"constructor"},{"anonymous":false,"inputs":[{"indexed":false,"internalType":"uint16","name":"srcChainId","type":"uint16"},{"indexed":false,"internalType":"bytes","name":"srcAddress","type":"bytes"},{"indexed":false,"internalType":"uint64","name":"nonce","type":"uint64"},{"indexed":false,"internalType":"address","name":"dstAddress","type":"address"}],"name":"PayloadCleared","type":"event"},{"anonymous":false,"inputs":[{"indexed":false,"internalType":"uint16","name":"srcChainId","type":"uint16"},{"indexed":false,"internalType":"bytes","name":"srcAddress","type":"bytes"},{"indexed":false,"internalType":"address","name":"dstAddress","type":"address"},{"indexed":false,"internalType":"uint64","name":"nonce","type":"uint64"},{"indexed":false,"internalType":"bytes","name":"payload","type":"bytes"},{"indexed":false,"internalType":"bytes","name":"reason","type":"bytes"}],"name":"PayloadStored","type":"event"},{"anonymous":false,"inputs":[{"indexed":false,"internalType":"uint16","name":"chainId","type":"uint16"},{"indexed":false,"internalType":"bytes","name":"srcAddress","type":"bytes"}],"name":"UaForceResumeReceive","type":"event"},{"anonymous":false,"inputs":[{"indexed":true,"internalType":"address","name":"to","type":"address"},{"indexed":true,"internalType":"uint256","name":"quantity","type":"uint256"}],"name":"ValueTransferFailed","type":"event"},{"inputs":[],"name":"blockNextMsg","outputs":[],"stateMutability":"nonpayable","type":"function"},{"inputs":[],"name":"defaultAdapterParams","outputs":[{"internalType":"bytes","name":"","type":"bytes"}],"stateMutability":"view","type":"function"},{"inputs":[{"internalType":"uint16","name":"_dstChainId","type":"uint16"},{"internalType":"address","name":"_userApplication","type":"address"},{"internalType":"bytes","name":"_payload","type":"bytes"},{"internalType":"bool","name":"_payInZRO","type":"bool"},{"internalType":"bytes","name":"_adapterParams","type":"bytes"}],"name":"estimateFees","outputs":[{"internalType":"uint256","name":"nativeFee","type":"uint256"},{"internalType":"uint256","name":"zroFee","type":"uint256"}],"stateMutability":"view","type":"function"},{"inputs":[{"internalType":"uint16","name":"_srcChainId","type":"uint16"},{"internalType":"bytes","name":"_path","type":"bytes"}],"name":"forceResumeReceive","outputs":[],"stateMutability":"nonpayable","type":"function"},{"inputs":[],"name":"getChainId","outputs":[{"internalType":"uint16","name":"","type":"uint16"}],"stateMutability":"view","type":"function"},{"inputs":[{"internalType":"uint16","name":"","type":"uint16"},{"internalType":"uint16","name":"","type":"uint16"},{"internalType":"address","name":"","type":"address"},{"internalType":"uint256","name":"","type":"uint256"}],"name":"getConfig","outputs":[{"internalType":"bytes","name":"","type":"bytes"}],"stateMutability":"pure","type":"function"},{"inputs":[{"internalType":"uint16","name":"_chainID","type":"uint16"},{"internalType":"bytes","name":"_path","type":"bytes"}],"name":"getInboundNonce","outputs":[{"internalType":"uint64","name":"","type":"uint64"}],"stateMutability":"view","type":"function"},{"inputs":[{"internalType":"uint16","name":"_srcChainId","type":"uint16"},{"internalType":"bytes","name":"_srcAddress","type":"bytes"}],"name":"getLengthOfQueue","outputs":[{"internalType":"uint256","name":"","type":"uint256"}],"stateMutability":"view","type":"function"},{"inputs":[{"internalType":"uint16","name":"_chainID","type":"uint16"},{"internalType":"address","name":"_srcAddress","type":"address"}],"name":"getOutboundNonce","outputs":[{"internalType":"uint64","name":"","type":"uint64"}],"stateMutability":"view","type":"function"},{"inputs":[{"internalType":"address","name":"","type":"address"}],"name":"getReceiveLibraryAddress","outputs":[{"internalType":"address","name":"","type":"address"}],"stateMutability":"view","type":"function"},{"inputs":[{"internalType":"address","name":"","type":"address"}],"name":"getReceiveVersion","outputs":[{"internalType":"uint16","name":"","type":"uint16"}],"stateMutability":"pure","type":"function"},{"inputs":[{"internalType":"address","name":"","type":"address"}],"name":"getSendLibraryAddress","outputs":[{"internalType":"address","name":"","type":"address"}],"stateMutability":"view","type":"function"},{"inputs":[{"internalType":"address","name":"","type":"address"}],"name":"getSendVersion","outputs":[{"internalType":"uint16","name":"","type":"uint16"}],"stateMutability":"pure","type":"function"},{"inputs":[{"internalType":"uint16","name":"_srcChainId","type":"uint16"},{"internalType":"bytes","name":"_path","type":"bytes"}],"name":"hasStoredPayload","outputs":[{"internalType":"bool","name":"","type":"bool"}],"stateMutability":"view","type":"function"},{"inputs":[{"internalType":"uint16","name":"","type":"uint16"},{"internalType":"bytes","name":"","type":"bytes"}],"name":"inboundNonce","outputs":[{"internalType":"uint64","name":"","type":"uint64"}],"stateMutability":"view","type":"function"},{"inputs":[],"name":"isReceivingPayload","outputs":[{"internalType":"bool","name":"","type":"bool"}],"stateMutability":"view","type":"function"},{"inputs":[],"name":"isSendingPayload","outputs":[{"internalType":"bool","name":"","type":"bool"}],"stateMutability":"view","type":"function"},{"inputs":[{"internalType":"address","name":"","type":"address"}],"name":"lzEndpointLookup","outputs":[{"internalType":"address","name":"","type":"address"}],"stateMutability":"view","type":"function"},{"inputs":[],"name":"mockChainId","outputs":[{"internalType":"uint16","name":"","type":"uint16"}],"stateMutability":"view","type":"function"},{"inputs":[{"internalType":"uint16","name":"","type":"uint16"},{"internalType":"bytes","name":"","type":"bytes"},{"internalType":"uint256","name":"","type":"uint256"}],"name":"msgsToDeliver","outputs":[{"internalType":"address","name":"dstAddress","type":"address"},{"internalType":"uint64","name":"nonce","type":"uint64"},{"internalType":"bytes","name":"payload","type":"bytes"}],"stateMutability":"view","type":"function"},{"inputs":[],"name":"nextMsgBlocked","outputs":[{"internalType":"bool","name":"","type":"bool"}],"stateMutability":"view","type":"function"},{"inputs":[],"name":"oracleFee","outputs":[{"internalType":"uint256","name":"","type":"uint256"}],"stateMutability":"view","type":"function"},{"inputs":[{"internalType":"uint16","name":"","type":"uint16"},{"internalType":"address","name":"","type":"address"}],"name":"outboundNonce","outputs":[{"internalType":"uint64","name":"","type":"uint64"}],"stateMutability":"view","type":"function"},{"inputs":[],"name":"protocolFeeConfig","outputs":[{"internalType":"uint256","name":"zroFee","type":"uint256"},{"internalType":"uint256","name":"nativeBP","type":"uint256"}],"stateMutability":"view","type":"function"},{"inputs":[{"internalType":"uint16","name":"_srcChainId","type":"uint16"},{"internalType":"bytes","name":"_path","type":"bytes"},{"internalType":"address","name":"_dstAddress","type":"address"},{"internalType":"uint64","name":"_nonce","type":"uint64"},{"internalType":"uint256","name":"_gasLimit","type":"uint256"},{"internalType":"bytes","name":"_payload","type":"bytes"}],"name":"receivePayload","outputs":[],"stateMutability":"nonpayable","type":"function"},{"inputs":[],"name":"relayerFeeConfig","outputs":[{"internalType":"uint128","name":"dstPriceRatio","type":"uint128"},{"internalType":"uint128","name":"dstGasPriceInWei","type":"uint128"},{"internalType":"uint128","name":"dstNativeAmtCap","type":"uint128"},{"internalType":"uint64","name":"baseGas","type":"uint64"},{"internalType":"uint64","name":"gasPerByte","type":"uint64"}],"stateMutability":"view","type":"function"},{"inputs":[{"internalType":"uint16","name":"_srcChainId","type":"uint16"},{"internalType":"bytes","name":"_path","type":"bytes"},{"internalType":"bytes","name":"_payload","type":"bytes"}],"name":"retryPayload","outputs":[],"stateMutability":"nonpayable","type":"function"},{"inputs":[{"internalType":"uint16","name":"_chainId","type":"uint16"},{"internalType":"bytes","name":"_path","type":"bytes"},{"internalType":"bytes","name":"_payload","type":"bytes"},{"internalType":"address payable","name":"_refundAddress","type":"address"},{"internalType":"address","name":"_zroPaymentAddress","type":"address"},{"internalType":"bytes","name":"_adapterParams","type":"bytes"}],"name":"send","outputs":[],"stateMutability":"payable","type":"function"},{"inputs":[{"internalType":"uint16","name":"","type":"uint16"},{"internalType":"uint16","name":"","type":"uint16"},{"internalType":"uint256","name":"","type":"uint256"},{"internalType":"bytes","name":"","type":"bytes"}],"name":"setConfig","outputs":[],"stateMutability":"nonpayable","type":"function"},{"inputs":[{"internalType":"bytes","name":"_adapterParams","type":"bytes"}],"name":"setDefaultAdapterParams","outputs":[],"stateMutability":"nonpayable","type":"function"},{"inputs":[{"internalType":"address","name":"destAddr","type":"address"},{"internalType":"address","name":"lzEndpointAddr","type":"address"}],"name":"setDestLzEndpoint","outputs":[],"stateMutability":"nonpayable","type":"function"},{"inputs":[{"internalType":"uint256","name":"_oracleFee","type":"uint256"}],"name":"setOracleFee","outputs":[],"stateMutability":"nonpayable","type":"function"},{"inputs":[{"internalType":"uint256","name":"_zroFee","type":"uint256"},{"internalType":"uint256","name":"_nativeBP","type":"uint256"}],"name":"setProtocolFee","outputs":[],"stateMutability":"nonpayable","type":"function"},{"inputs":[{"internalType":"uint16","name":"","type":"uint16"}],"name":"setReceiveVersion","outputs":[],"stateMutability":"nonpayable","type":"function"},{"inputs":[{"internalType":"uint128","name":"_dstPriceRatio","type":"uint128"},{"internalType":"uint128","name":"_dstGasPriceInWei","type":"uint128"},{"internalType":"uint128","name":"_dstNativeAmtCap","type":"uint128"},{"internalType":"uint64","name":"_baseGas","type":"uint64"},{"internalType":"uint64","name":"_gasPerByte","type":"uint64"}],"name":"setRelayerPrice","outputs":[],"stateMutability":"nonpayable","type":"function"},{"inputs":[{"internalType":"uint16","name":"","type":"uint16"}],"name":"setSendVersion","outputs":[],"stateMutability":"nonpayable","type":"function"},{"inputs":[{"internalType":"uint16","name":"","type":"uint16"},{"internalType":"bytes","name":"","type":"bytes"}],"name":"storedPayload","outputs":[{"internalType":"uint64","name":"payloadLength","type":"uint64"},{"internalType":"address","name":"dstAddress","type":"address"},{"internalType":"bytes32","name":"payloadHash","type":"bytes32"}],"stateMutability":"view","type":"function"}],"devdoc":{"kind":"dev","methods":{},"version":1},"evm":{"bytecode":{"linkReferences":{},"object":"6080604052600c805461ffff19166101011790553480156200002057600080fd5b50604051620031af380380620031af83398101604081905262000043916200013d565b6001805461ffff191661ffff83161781556040805160a0810182526402540be400808252602080830191909152678ac7230489e8000082840152606460608301526080909101929092527402540be400000000000000000000000002540be4006002557801000000000000006400000000000000008ac7230489e800006003558051808201909152670de0b6b3a76400008082526103e891909201819052600491909155600555662386f26fc100006006556200012662030d4060408051600160f01b602082015260228082019390935281518082039093018352604201905290565b6007906200013590826200020f565b5050620002db565b6000602082840312156200015057600080fd5b815161ffff811681146200016357600080fd5b9392505050565b634e487b7160e01b600052604160045260246000fd5b600181811c908216806200019557607f821691505b602082108103620001b657634e487b7160e01b600052602260045260246000fd5b50919050565b601f8211156200020a57600081815260208120601f850160051c81016020861015620001e55750805b601f850160051c820191505b818110156200020657828155600101620001f1565b5050505b505050565b81516001600160401b038111156200022b576200022b6200016a565b62000243816200023c845462000180565b84620001bc565b602080601f8311600181146200027b5760008415620002625750858301515b600019600386901b1c1916600185901b17855562000206565b600085815260208120601f198616915b82811015620002ac578886015182559484019460019091019084016200028b565b5085821015620002cb5787850151600019600388901b60f8161c191681555b5050505050600190811b01905550565b612ec480620002eb6000396000f3fe60806040526004361061021a5760003560e01c80639924d33b11610123578063ca066b35116100ab578063e97a448a1161006f578063e97a448a1461080a578063f5ecbdbc14610826578063f9cd3ceb14610858578063fbba623b1461086e578063fdc07c701461088e57600080fd5b8063ca066b351461078a578063cbed8b9c146107ab578063d23104f1146107cc578063da1a7c9a14610274578063db14f305146107ef57600080fd5b8063b6d9ef60116100f2578063b6d9ef60146106b8578063c08f15a1146106d8578063c2fa481314610721578063c580310014610741578063c81b383a1461075457600080fd5b80639924d33b146106055780639c729da11461043e578063aaff5f1614610657578063b20864991461067757600080fd5b80633408e470116101a657806371ba2fd61161017557806371ba2fd61461043e57806376a386dc146104765780637a1457481461050f5780637f6df8e614610547578063907c5e7e1461057557600080fd5b80633408e470146103c55780633e0dd83e146103de57806340a7bb10146103fe57806342d65a8d1461041e57600080fd5b806310ddb137116101ed57806310ddb1371461025457806312a9ee6b146102d8578063240de27714610307578063272bd3841461032d5780632c365e251461034f57600080fd5b806307d3277f1461021f57806307e0db1714610254578063096568f6146102745780630eaf6ea6146102a8575b600080fd5b34801561022b57600080fd5b5060045460055461023a919082565b604080519283526020830191909152015b60405180910390f35b34801561026057600080fd5b5061027261026f3660046121cb565b50565b005b34801561028057600080fd5b5061029561028f3660046121fb565b50600190565b60405161ffff909116815260200161024b565b3480156102b457600080fd5b506102c86102c3366004612260565b6108ae565b604051901515815260200161024b565b3480156102e457600080fd5b506102f86102f3366004612354565b6108f4565b60405161024b939291906123f0565b34801561031357600080fd5b5061027261032236600461242c565b600491909155600555565b34801561033957600080fd5b506103426109f1565b60405161024b919061244e565b34801561035b57600080fd5b5061027261036a36600461248f565b6001600160801b03948516600160801b94861685021760025560038054939095166001600160c01b0319909316929092176001600160401b03918216909302929092176001600160c01b0316600160c01b9190921602179055565b3480156103d157600080fd5b5060015461ffff16610295565b3480156103ea57600080fd5b506001546102c89062010000900460ff1681565b34801561040a57600080fd5b5061023a6104193660046124f4565b610a7f565b34801561042a57600080fd5b50610272610439366004612260565b610b7e565b34801561044a57600080fd5b5061045e6104593660046121fb565b503090565b6040516001600160a01b03909116815260200161024b565b34801561048257600080fd5b506104e2610491366004612594565b600a6020908152600092835260409092208151808301840180519281529084019290930191909120915280546001909101546001600160401b03821691600160401b90046001600160a01b03169083565b604080516001600160401b0390941684526001600160a01b0390921660208401529082015260600161024b565b34801561051b57600080fd5b5061052f61052a3660046125e1565b610cc5565b6040516001600160401b03909116815260200161024b565b34801561055357600080fd5b50610567610562366004612260565b610cfd565b60405190815260200161024b565b34801561058157600080fd5b506002546003546105c1916001600160801b0380821692600160801b92839004821692918116916001600160401b03908204811691600160c01b90041685565b604080516001600160801b039687168152948616602086015292909416918301919091526001600160401b039081166060830152909116608082015260a00161024b565b34801561061157600080fd5b5061052f610620366004612594565b600860209081526000928352604090922081518083018401805192815290840192909301919091209152546001600160401b031681565b34801561066357600080fd5b50610272610672366004612618565b610d39565b34801561068357600080fd5b5061052f6106923660046125e1565b60096020908152600092835260408084209091529082529020546001600160401b031681565b3480156106c457600080fd5b506102726106d3366004612698565b600655565b3480156106e457600080fd5b506102726106f33660046126b1565b6001600160a01b03918216600090815260208190526040902080546001600160a01b03191691909216179055565b34801561072d57600080fd5b5061027261073c3660046126cf565b610f4f565b61027261074f36600461277e565b61168a565b34801561076057600080fd5b5061045e61076f3660046121fb565b6000602081905290815260409020546001600160a01b031681565b34801561079657600080fd5b506102c8600c54610100900460ff1660021490565b3480156107b757600080fd5b506102726107c6366004612845565b50505050565b3480156107d857600080fd5b506102726001805462ff0000191662010000179055565b3480156107fb57600080fd5b506001546102959061ffff1681565b34801561081657600080fd5b506102c8600c5460ff1660021490565b34801561083257600080fd5b506103426108413660046128ac565b604080516020810190915260008152949350505050565b34801561086457600080fd5b5061056760065481565b34801561087a57600080fd5b506102726108893660046128f9565b611c25565b34801561089a57600080fd5b5061052f6108a9366004612260565b611c35565b61ffff83166000908152600a602052604080822090518291906108d49086908690612935565b9081526040519081900360200190206001015415159150505b9392505050565b600b602090815260008481526040902083518085018301805192815290830192850192909220915280548290811061092b57600080fd5b6000918252602090912060029091020180546001820180546001600160a01b0383169650600160a01b9092046001600160401b0316945091925061096e90612945565b80601f016020809104026020016040519081016040528092919081815260200182805461099a90612945565b80156109e75780601f106109bc576101008083540402835291602001916109e7565b820191906000526020600020905b8154815290600101906020018083116109ca57829003601f168201915b5050505050905083565b600780546109fe90612945565b80601f0160208091040260200160405190810160405280929190818152602001828054610a2a90612945565b8015610a775780601f10610a4c57610100808354040283529160200191610a77565b820191906000526020600020905b815481529060010190602001808311610a5a57829003601f168201915b505050505081565b600080600080845111610b1c5760078054610a9990612945565b80601f0160208091040260200160405190810160405280929190818152602001828054610ac590612945565b8015610b125780601f10610ae757610100808354040283529160200191610b12565b820191906000526020600020905b815481529060010190602001808311610af557829003601f168201915b5050505050610b1e565b835b90506000610b318960018a8a5186611c7a565b90506000610b428783600654611e13565b905086610b525780945084610b57565b809350835b50600654610b658387612995565b610b6f9190612995565b94505050509550959350505050565b61ffff83166000908152600a60205260408082209051610ba19085908590612935565b9081526040519081900360200190206001810154909150610c095760405162461bcd60e51b815260206004820181905260248201527f4c617965725a65726f4d6f636b3a206e6f2073746f726564207061796c6f616460448201526064015b60405180910390fd5b8054600160401b90046001600160a01b03163314610c695760405162461bcd60e51b815260206004820152601d60248201527f4c617965725a65726f4d6f636b3a20696e76616c69642063616c6c65720000006044820152606401610c00565b80546001600160e01b0319168155600060018201556040517f23d2684f396e92a6e2ff2d16f98e6fea00d50cb27a64b531bc0748f730211f9890610cb2908690869086906129d1565b60405180910390a16107c6848484611e50565b61ffff821660009081526009602090815260408083206001600160a01b03851684529091529020546001600160401b03165b92915050565b61ffff83166000908152600b60205260408082209051610d209085908590612935565b9081526040519081900360200190205490509392505050565b61ffff85166000908152600a60205260408082209051610d5c9087908790612935565b9081526040519081900360200190206001810154909150610dbf5760405162461bcd60e51b815260206004820181905260248201527f4c617965725a65726f4d6f636b3a206e6f2073746f726564207061796c6f61646044820152606401610c00565b80546001600160401b031682148015610df2575080600101548383604051610de8929190612935565b6040518091039020145b610e3e5760405162461bcd60e51b815260206004820152601e60248201527f4c617965725a65726f4d6f636b3a20696e76616c6964207061796c6f616400006044820152606401610c00565b80546001600160e01b03198116825560006001830181905561ffff88168152600860205260408082209051600160401b9093046001600160a01b031692610e889089908990612935565b90815260405190819003602001812054621d356760e01b82526001600160401b031691506001600160a01b03831690621d356790610ed4908b908b908b9087908c908c906004016129ef565b600060405180830381600087803b158015610eee57600080fd5b505af1158015610f02573d6000803e3d6000fd5b505050507f612434f39581c8e7d99746c9c20c6eb0ce8c0eb99f007c5719d620841370957d8888888486604051610f3d959493929190612a3c565b60405180910390a15050505050505050565b600c54610100900460ff16600114610fb55760405162461bcd60e51b8152602060048201526024808201527f4c617965725a65726f4d6f636b3a206e6f2072656365697665207265656e7472604482015263616e637960e01b6064820152608401610c00565b600c805461ff00191661020017905561ffff88166000908152600a60205260408082209051610fe7908a908a90612935565b90815260200160405180910390209050600860008a61ffff1661ffff1681526020019081526020016000208888604051611022929190612935565b9081526040519081900360200190208054600090611048906001600160401b0316612a85565b91906101000a8154816001600160401b0302191690836001600160401b0316021790556001600160401b0316856001600160401b0316146110cb5760405162461bcd60e51b815260206004820152601a60248201527f4c617965725a65726f4d6f636b3a2077726f6e67206e6f6e63650000000000006044820152606401610c00565b60018101541561139d5761ffff89166000908152600b602052604080822090516110f8908b908b90612935565b9081526020016040518091039020905060006040518060600160405280896001600160a01b03168152602001886001600160401b0316815260200186868080601f016020809104026020016040519081016040528093929190818152602001838380828437600092019190915250505091525082549091501561132e57815460018181018455600084815260209081902084516002909402018054918501516001600160401b0316600160a01b026001600160e01b03199092166001600160a01b039094169390931717825560408301518392918201906111d99082612afa565b50505060005b82546111ed90600190612bb9565b8110156112b35782818154811061120657611206612bcc565b9060005260206000209060020201838260016112229190612995565b8154811061123257611232612bcc565b60009182526020909120825460029092020180546001600160a01b039092166001600160a01b031983168117825583546001600160e01b031990931617600160a01b928390046001600160401b031690920291909117815560018082019061129c90840182612be2565b5090505080806112ab90612cbc565b9150506111df565b5080826000815481106112c8576112c8612bcc565b600091825260209182902083516002909202018054928401516001600160401b0316600160a01b026001600160e01b03199093166001600160a01b0390921691909117919091178155604082015160018201906113259082612afa565b50905050611396565b815460018181018455600084815260209081902084516002909402018054918501516001600160401b0316600160a01b026001600160e01b03199092166001600160a01b039094169390931717825560408301518392918201906113929082612afa565b5050505b5050611670565b60015462010000900460ff16156114cb576040518060600160405280848490506001600160401b03168152602001876001600160a01b0316815260200184846040516113ea929190612935565b604080519182900390912090915261ffff8b166000908152600a6020528190209051611419908b908b90612935565b90815260408051918290036020908101832084518154868401516001600160a01b0316600160401b026001600160e01b03199091166001600160401b03909216919091171781559382015160019094019390935591810182526000815290517f0f9e4d95b62f08222d612b5ab92039cd8fbbbea550a95e8df9f927436bbdf5db916114b2918c918c918c918c918c918b918b9190612cd5565b60405180910390a16001805462ff000019169055611670565b604051621d356760e01b81526001600160a01b03871690621d3567908690611501908d908d908d908c908b908b906004016129ef565b600060405180830381600088803b15801561151b57600080fd5b5087f19350505050801561152d575060015b611670573d80801561155b576040519150601f19603f3d011682016040523d82523d6000602084013e611560565b606091505b506040518060600160405280858590506001600160401b03168152602001886001600160a01b03168152602001858560405161159d929190612935565b604080519182900390912090915261ffff8c166000908152600a60205281902090516115cc908c908c90612935565b90815260408051918290036020908101832084518154928601516001600160a01b0316600160401b026001600160e01b03199093166001600160401b03909116179190911781559201516001909201919091557f0f9e4d95b62f08222d612b5ab92039cd8fbbbea550a95e8df9f927436bbdf5db9061165a908c908c908c908c908c908b908b908a90612cd5565b60405180910390a1506001805462ff0000191690555b5050600c805461ff00191661010017905550505050505050565b600c5460ff166001146116e95760405162461bcd60e51b815260206004820152602160248201527f4c617965725a65726f4d6f636b3a206e6f2073656e64207265656e7472616e636044820152607960f81b6064820152608401610c00565b600c805460ff19166002179055855160281461175c5760405162461bcd60e51b815260206004820152602c60248201527f4c617965725a65726f4d6f636b3a20696e636f72726563742072656d6f74652060448201526b616464726573732073697a6560a01b6064820152608401610c00565b60148601516001600160a01b0380821660009081526020819052604090205416806117ef5760405162461bcd60e51b815260206004820152603760248201527f4c617965725a65726f4d6f636b3a2064657374696e6174696f6e204c6179657260448201527f5a65726f20456e64706f696e74206e6f7420666f756e640000000000000000006064820152608401610c00565b600080845111611889576007805461180690612945565b80601f016020809104026020016040519081016040528092919081815260200182805461183290612945565b801561187f5780601f106118545761010080835404028352916020019161187f565b820191906000526020600020905b81548152906001019060200180831161186257829003601f168201915b505050505061188b565b835b905060006118dc8b338b8b8080601f0160208091040260200160405190810160405280939291908181526020018383808284376000920191909152505050506001600160a01b038a16151586610a7f565b509050803410156119415760405162461bcd60e51b815260206004820152602960248201527f4c617965725a65726f4d6f636b3a206e6f7420656e6f756768206e617469766560448201526820666f72206665657360b81b6064820152608401610c00565b61ffff8b166000908152600960209081526040808320338452909152812080548290611975906001600160401b0316612a85565b91906101000a8154816001600160401b0302191690836001600160401b0316021790559050600082346119a89190612bb9565b90508015611a55576000896001600160a01b03168260405160006040518083038185875af1925050503d80600081146119fd576040519150601f19603f3d011682016040523d82523d6000602084013e611a02565b606091505b5050905080611a535760405162461bcd60e51b815260206004820152601f60248201527f4c617965725a65726f4d6f636b3a206661696c656420746f20726566756e64006044820152606401610c00565b505b6000806000611a6387612047565b91955093509150508115611b05576000816001600160a01b03168360405160006040518083038185875af1925050503d8060008114611abe576040519150601f19603f3d011682016040523d82523d6000602084013e611ac3565b606091505b5050905080611b035760405183906001600160a01b038416907f2c7a964ca3de5ec1d42d9822f9bbd0eb142a59cc9f855e9d93813b773192c7a390600090a35b505b6040516bffffffffffffffffffffffff1933606090811b821660208401528b901b166034820152600090604801604051602081830303815290604052905060008f8f8080601f016020809104026020016040519081016040528093929190818152602001838380828437600081840152601f19601f820116905080830192505050505050509050896001600160a01b031663c2fa4813600160009054906101000a900461ffff16848e8b8a876040518763ffffffff1660e01b8152600401611bd296959493929190612d47565b600060405180830381600087803b158015611bec57600080fd5b505af1158015611c00573d6000803e3d6000fd5b5050600c805460ff191660011790555050505050505050505050505050505050505050565b6007611c318282612afa565b5050565b61ffff83166000908152600860205260408082209051611c589085908590612935565b908152604051908190036020019020546001600160401b031690509392505050565b600080600080611c8985612047565b5092509250925060008361ffff16600203611d15576003546001600160801b0316821115611d085760405162461bcd60e51b815260206004820152602660248201527f4c617965725a65726f4d6f636b3a206473744e6174697665416d7420746f6f2060448201526503630b933b2960d51b6064820152608401610c00565b611d128282612995565b90505b600354600090611d36908590600160801b90046001600160401b0316612995565b600254611d539190600160801b90046001600160801b0316612d9b565b9050611d5f8183612995565b6002549092506000906402540be40090611d82906001600160801b031685612d9b565b611d8c9190612dc8565b6002546003549192506000916402540be400916001600160801b0380821692611dcf92600160c01b9091046001600160401b031691600160801b90910416612ddc565b611dd99190612ddc565b611de39190612e07565b6001600160801b03169050611df8818b612d9b565b611e029083612995565b9d9c50505050505050505050505050565b60008315611e2457506004546108ed565b60055461271090611e358486612995565b611e3f9190612d9b565b611e499190612dc8565b90506108ed565b61ffff83166000908152600b60205260408082209051611e739085908590612935565b908152602001604051809103902090505b8054156107c65780546000908290611e9e90600190612bb9565b81548110611eae57611eae612bcc565b600091825260209182902060408051606081018252600290930290910180546001600160a01b03811684526001600160401b03600160a01b909104169383019390935260018301805492939291840191611f0790612945565b80601f0160208091040260200160405190810160405280929190818152602001828054611f3390612945565b8015611f805780601f10611f5557610100808354040283529160200191611f80565b820191906000526020600020905b815481529060010190602001808311611f6357829003601f168201915b505050505081525050905080600001516001600160a01b0316621d3567868686856020015186604001516040518663ffffffff1660e01b8152600401611fca959493929190612e2d565b600060405180830381600087803b158015611fe457600080fd5b505af1158015611ff8573d6000803e3d6000fd5b505050508180548061200c5761200c612e78565b60008281526020812060026000199093019283020180546001600160e01b03191681559061203d6001830182612166565b5050905550611e84565b60008060008084516022148061205e575060428551115b6120a25760405162461bcd60e51b8152602060048201526015602482015274496e76616c69642061646170746572506172616d7360581b6044820152606401610c00565b60028501519350602285015192508361ffff16600114806120c757508361ffff166002145b6121085760405162461bcd60e51b8152602060048201526012602482015271556e737570706f727465642074785479706560701b6044820152606401610c00565b600083116121465760405162461bcd60e51b815260206004820152600b60248201526a47617320746f6f206c6f7760a81b6044820152606401610c00565b8361ffff1660020361215f575050604283015160568401515b9193509193565b50805461217290612945565b6000825580601f10612182575050565b601f01602090049060005260206000209081019061026f91905b808211156121b0576000815560010161219c565b5090565b803561ffff811681146121c657600080fd5b919050565b6000602082840312156121dd57600080fd5b6108ed826121b4565b6001600160a01b038116811461026f57600080fd5b60006020828403121561220d57600080fd5b81356108ed816121e6565b60008083601f84011261222a57600080fd5b5081356001600160401b0381111561224157600080fd5b60208301915083602082850101111561225957600080fd5b9250929050565b60008060006040848603121561227557600080fd5b61227e846121b4565b925060208401356001600160401b0381111561229957600080fd5b6122a586828701612218565b9497909650939450505050565b634e487b7160e01b600052604160045260246000fd5b600082601f8301126122d957600080fd5b81356001600160401b03808211156122f3576122f36122b2565b604051601f8301601f19908116603f0116810190828211818310171561231b5761231b6122b2565b8160405283815286602085880101111561233457600080fd5b836020870160208301376000602085830101528094505050505092915050565b60008060006060848603121561236957600080fd5b612372846121b4565b925060208401356001600160401b0381111561238d57600080fd5b612399868287016122c8565b925050604084013590509250925092565b6000815180845260005b818110156123d0576020818501810151868301820152016123b4565b506000602082860101526020601f19601f83011685010191505092915050565b6001600160a01b03841681526001600160401b0383166020820152606060408201819052600090612423908301846123aa565b95945050505050565b6000806040838503121561243f57600080fd5b50508035926020909101359150565b6020815260006108ed60208301846123aa565b80356001600160801b03811681146121c657600080fd5b80356001600160401b03811681146121c657600080fd5b600080600080600060a086880312156124a757600080fd5b6124b086612461565b94506124be60208701612461565b93506124cc60408701612461565b92506124da60608701612478565b91506124e860808701612478565b90509295509295909350565b600080600080600060a0868803121561250c57600080fd5b612515866121b4565b94506020860135612525816121e6565b935060408601356001600160401b038082111561254157600080fd5b61254d89838a016122c8565b945060608801359150811515821461256457600080fd5b9092506080870135908082111561257a57600080fd5b50612587888289016122c8565b9150509295509295909350565b600080604083850312156125a757600080fd5b6125b0836121b4565b915060208301356001600160401b038111156125cb57600080fd5b6125d7858286016122c8565b9150509250929050565b600080604083850312156125f457600080fd5b6125fd836121b4565b9150602083013561260d816121e6565b809150509250929050565b60008060008060006060868803121561263057600080fd5b612639866121b4565b945060208601356001600160401b038082111561265557600080fd5b61266189838a01612218565b9096509450604088013591508082111561267a57600080fd5b5061268788828901612218565b969995985093965092949392505050565b6000602082840312156126aa57600080fd5b5035919050565b600080604083850312156126c457600080fd5b82356125fd816121e6565b60008060008060008060008060c0898b0312156126eb57600080fd5b6126f4896121b4565b975060208901356001600160401b038082111561271057600080fd5b61271c8c838d01612218565b909950975060408b01359150612731826121e6565b81965061274060608c01612478565b955060808b0135945060a08b013591508082111561275d57600080fd5b5061276a8b828c01612218565b999c989b5096995094979396929594505050565b600080600080600080600060c0888a03121561279957600080fd5b6127a2886121b4565b965060208801356001600160401b03808211156127be57600080fd5b6127ca8b838c016122c8565b975060408a01359150808211156127e057600080fd5b6127ec8b838c01612218565b909750955060608a01359150612801826121e6565b909350608089013590612813826121e6565b90925060a0890135908082111561282957600080fd5b506128368a828b016122c8565b91505092959891949750929550565b6000806000806080858703121561285b57600080fd5b612864856121b4565b9350612872602086016121b4565b92506040850135915060608501356001600160401b0381111561289457600080fd5b6128a0878288016122c8565b91505092959194509250565b600080600080608085870312156128c257600080fd5b6128cb856121b4565b93506128d9602086016121b4565b925060408501356128e9816121e6565b9396929550929360600135925050565b60006020828403121561290b57600080fd5b81356001600160401b0381111561292157600080fd5b61292d848285016122c8565b949350505050565b8183823760009101908152919050565b600181811c9082168061295957607f821691505b60208210810361297957634e487b7160e01b600052602260045260246000fd5b50919050565b634e487b7160e01b600052601160045260246000fd5b80820180821115610cf757610cf761297f565b81835281816020850137506000828201602090810191909152601f909101601f19169091010190565b61ffff841681526040602082015260006124236040830184866129a8565b61ffff87168152608060208201526000612a0d6080830187896129a8565b6001600160401b03861660408401528281036060840152612a2f8185876129a8565b9998505050505050505050565b61ffff86168152608060208201526000612a5a6080830186886129a8565b6001600160401b03949094166040830152506001600160a01b03919091166060909101529392505050565b60006001600160401b03808316818103612aa157612aa161297f565b6001019392505050565b601f821115612af557600081815260208120601f850160051c81016020861015612ad25750805b601f850160051c820191505b81811015612af157828155600101612ade565b5050505b505050565b81516001600160401b03811115612b1357612b136122b2565b612b2781612b218454612945565b84612aab565b602080601f831160018114612b5c5760008415612b445750858301515b600019600386901b1c1916600185901b178555612af1565b600085815260208120601f198616915b82811015612b8b57888601518255948401946001909101908401612b6c565b5085821015612ba95787850151600019600388901b60f8161c191681555b5050505050600190811b01905550565b81810381811115610cf757610cf761297f565b634e487b7160e01b600052603260045260246000fd5b818103612bed575050565b612bf78254612945565b6001600160401b03811115612c0e57612c0e6122b2565b612c1c81612b218454612945565b6000601f821160018114612c505760008315612c385750848201545b600019600385901b1c1916600184901b178455612cb5565b600085815260209020601f19841690600086815260209020845b83811015612c8a5782860154825560019586019590910190602001612c6a565b5085831015612ca85781850154600019600388901b60f8161c191681555b50505060018360011b0184555b5050505050565b600060018201612cce57612cce61297f565b5060010190565b61ffff8916815260c060208201526000612cf360c08301898b6129a8565b6001600160a01b03881660408401526001600160401b03871660608401528281036080840152612d248186886129a8565b905082810360a0840152612d3881856123aa565b9b9a5050505050505050505050565b61ffff8716815260c060208201526000612d6460c08301886123aa565b6001600160a01b03871660408401526001600160401b03861660608401526080830185905282810360a0840152612a2f81856123aa565b8082028115828204841417610cf757610cf761297f565b634e487b7160e01b600052601260045260246000fd5b600082612dd757612dd7612db2565b500490565b6001600160801b03818116838216028082169190828114612dff57612dff61297f565b505092915050565b60006001600160801b0380841680612e2157612e21612db2565b92169190910492915050565b61ffff86168152608060208201526000612e4b6080830186886129a8565b6001600160401b03851660408401528281036060840152612e6c81856123aa565b98975050505050505050565b634e487b7160e01b600052603160045260246000fdfea2646970667358221220fcd7ba2c73a398675676dc636f7d9fcd1f0c0fed865a358dad8ae7aab184e24164736f6c63430008140033","opcodes":"PUSH1 0x80 PUSH1 0x40 MSTORE PUSH1 0xC DUP1 SLOAD PUSH2 0xFFFF NOT AND PUSH2 0x101 OR SWAP1 SSTORE CALLVALUE DUP1 ISZERO PUSH3 0x20 JUMPI PUSH1 0x0 DUP1 REVERT JUMPDEST POP PUSH1 0x40 MLOAD PUSH3 0x31AF CODESIZE SUB DUP1 PUSH3 0x31AF DUP4 CODECOPY DUP2 ADD PUSH1 0x40 DUP2 SWAP1 MSTORE PUSH3 0x43 SWAP2 PUSH3 0x13D JUMP JUMPDEST PUSH1 0x1 DUP1 SLOAD PUSH2 0xFFFF NOT AND PUSH2 0xFFFF DUP4 AND OR DUP2 SSTORE PUSH1 0x40 DUP1 MLOAD PUSH1 0xA0 DUP2 ADD DUP3 MSTORE PUSH5 0x2540BE400 DUP1 DUP3 MSTORE PUSH1 0x20 DUP1 DUP4 ADD SWAP2 SWAP1 SWAP2 MSTORE PUSH8 0x8AC7230489E80000 DUP3 DUP5 ADD MSTORE PUSH1 0x64 PUSH1 0x60 DUP4 ADD MSTORE PUSH1 0x80 SWAP1 SWAP2 ADD SWAP3 SWAP1 SWAP3 MSTORE PUSH21 0x2540BE400000000000000000000000002540BE400 PUSH1 0x2 SSTORE PUSH25 0x1000000000000006400000000000000008AC7230489E80000 PUSH1 0x3 SSTORE DUP1 MLOAD DUP1 DUP3 ADD SWAP1 SWAP2 MSTORE PUSH8 0xDE0B6B3A7640000 DUP1 DUP3 MSTORE PUSH2 0x3E8 SWAP2 SWAP1 SWAP3 ADD DUP2 SWAP1 MSTORE PUSH1 0x4 SWAP2 SWAP1 SWAP2 SSTORE PUSH1 0x5 SSTORE PUSH7 0x2386F26FC10000 PUSH1 0x6 SSTORE PUSH3 0x126 PUSH3 0x30D40 PUSH1 0x40 DUP1 MLOAD PUSH1 0x1 PUSH1 0xF0 SHL PUSH1 0x20 DUP3 ADD MSTORE PUSH1 0x22 DUP1 DUP3 ADD SWAP4 SWAP1 SWAP4 MSTORE DUP2 MLOAD DUP1 DUP3 SUB SWAP1 SWAP4 ADD DUP4 MSTORE PUSH1 0x42 ADD SWAP1 MSTORE SWAP1 JUMP JUMPDEST PUSH1 0x7 SWAP1 PUSH3 0x135 SWAP1 DUP3 PUSH3 0x20F JUMP JUMPDEST POP POP PUSH3 0x2DB JUMP JUMPDEST PUSH1 0x0 PUSH1 0x20 DUP3 DUP5 SUB SLT ISZERO PUSH3 0x150 JUMPI PUSH1 0x0 DUP1 REVERT JUMPDEST DUP2 MLOAD PUSH2 0xFFFF DUP2 AND DUP2 EQ PUSH3 0x163 JUMPI PUSH1 0x0 DUP1 REVERT JUMPDEST SWAP4 SWAP3 POP POP POP JUMP JUMPDEST PUSH4 0x4E487B71 PUSH1 0xE0 SHL PUSH1 0x0 MSTORE PUSH1 0x41 PUSH1 0x4 MSTORE PUSH1 0x24 PUSH1 0x0 REVERT JUMPDEST PUSH1 0x1 DUP2 DUP2 SHR SWAP1 DUP3 AND DUP1 PUSH3 0x195 JUMPI PUSH1 0x7F DUP3 AND SWAP2 POP JUMPDEST PUSH1 0x20 DUP3 LT DUP2 SUB PUSH3 0x1B6 JUMPI PUSH4 0x4E487B71 PUSH1 0xE0 SHL PUSH1 0x0 MSTORE PUSH1 0x22 PUSH1 0x4 MSTORE PUSH1 0x24 PUSH1 0x0 REVERT JUMPDEST POP SWAP2 SWAP1 POP JUMP JUMPDEST PUSH1 0x1F DUP3 GT ISZERO PUSH3 0x20A JUMPI PUSH1 0x0 DUP2 DUP2 MSTORE PUSH1 0x20 DUP2 KECCAK256 PUSH1 0x1F DUP6 ADD PUSH1 0x5 SHR DUP2 ADD PUSH1 0x20 DUP7 LT ISZERO PUSH3 0x1E5 JUMPI POP DUP1 JUMPDEST PUSH1 0x1F DUP6 ADD PUSH1 0x5 SHR DUP3 ADD SWAP2 POP JUMPDEST DUP2 DUP2 LT ISZERO PUSH3 0x206 JUMPI DUP3 DUP2 SSTORE PUSH1 0x1 ADD PUSH3 0x1F1 JUMP JUMPDEST POP POP POP JUMPDEST POP POP POP JUMP JUMPDEST DUP2 MLOAD PUSH1 0x1 PUSH1 0x1 PUSH1 0x40 SHL SUB DUP2 GT ISZERO PUSH3 0x22B JUMPI PUSH3 0x22B PUSH3 0x16A JUMP JUMPDEST PUSH3 0x243 DUP2 PUSH3 0x23C DUP5 SLOAD PUSH3 0x180 JUMP JUMPDEST DUP5 PUSH3 0x1BC JUMP JUMPDEST PUSH1 0x20 DUP1 PUSH1 0x1F DUP4 GT PUSH1 0x1 DUP2 EQ PUSH3 0x27B JUMPI PUSH1 0x0 DUP5 ISZERO PUSH3 0x262 JUMPI POP DUP6 DUP4 ADD MLOAD JUMPDEST PUSH1 0x0 NOT PUSH1 0x3 DUP7 SWAP1 SHL SHR NOT AND PUSH1 0x1 DUP6 SWAP1 SHL OR DUP6 SSTORE PUSH3 0x206 JUMP JUMPDEST PUSH1 0x0 DUP6 DUP2 MSTORE PUSH1 0x20 DUP2 KECCAK256 PUSH1 0x1F NOT DUP7 AND SWAP2 JUMPDEST DUP3 DUP2 LT ISZERO PUSH3 0x2AC JUMPI DUP9 DUP7 ADD MLOAD DUP3 SSTORE SWAP5 DUP5 ADD SWAP5 PUSH1 0x1 SWAP1 SWAP2 ADD SWAP1 DUP5 ADD PUSH3 0x28B JUMP JUMPDEST POP DUP6 DUP3 LT ISZERO PUSH3 0x2CB JUMPI DUP8 DUP6 ADD MLOAD PUSH1 0x0 NOT PUSH1 0x3 DUP9 SWAP1 SHL PUSH1 0xF8 AND SHR NOT AND DUP2 SSTORE JUMPDEST POP POP POP POP POP PUSH1 0x1 SWAP1 DUP2 SHL ADD SWAP1 SSTORE POP JUMP JUMPDEST PUSH2 0x2EC4 DUP1 PUSH3 0x2EB PUSH1 0x0 CODECOPY PUSH1 0x0 RETURN INVALID PUSH1 0x80 PUSH1 0x40 MSTORE PUSH1 0x4 CALLDATASIZE LT PUSH2 0x21A JUMPI PUSH1 0x0 CALLDATALOAD PUSH1 0xE0 SHR DUP1 PUSH4 0x9924D33B GT PUSH2 0x123 JUMPI DUP1 PUSH4 0xCA066B35 GT PUSH2 0xAB JUMPI DUP1 PUSH4 0xE97A448A GT PUSH2 0x6F JUMPI DUP1 PUSH4 0xE97A448A EQ PUSH2 0x80A JUMPI DUP1 PUSH4 0xF5ECBDBC EQ PUSH2 0x826 JUMPI DUP1 PUSH4 0xF9CD3CEB EQ PUSH2 0x858 JUMPI DUP1 PUSH4 0xFBBA623B EQ PUSH2 0x86E JUMPI DUP1 PUSH4 0xFDC07C70 EQ PUSH2 0x88E JUMPI PUSH1 0x0 DUP1 REVERT JUMPDEST DUP1 PUSH4 0xCA066B35 EQ PUSH2 0x78A JUMPI DUP1 PUSH4 0xCBED8B9C EQ PUSH2 0x7AB JUMPI DUP1 PUSH4 0xD23104F1 EQ PUSH2 0x7CC JUMPI DUP1 PUSH4 0xDA1A7C9A EQ PUSH2 0x274 JUMPI DUP1 PUSH4 0xDB14F305 EQ PUSH2 0x7EF JUMPI PUSH1 0x0 DUP1 REVERT JUMPDEST DUP1 PUSH4 0xB6D9EF60 GT PUSH2 0xF2 JUMPI DUP1 PUSH4 0xB6D9EF60 EQ PUSH2 0x6B8 JUMPI DUP1 PUSH4 0xC08F15A1 EQ PUSH2 0x6D8 JUMPI DUP1 PUSH4 0xC2FA4813 EQ PUSH2 0x721 JUMPI DUP1 PUSH4 0xC5803100 EQ PUSH2 0x741 JUMPI DUP1 PUSH4 0xC81B383A EQ PUSH2 0x754 JUMPI PUSH1 0x0 DUP1 REVERT JUMPDEST DUP1 PUSH4 0x9924D33B EQ PUSH2 0x605 JUMPI DUP1 PUSH4 0x9C729DA1 EQ PUSH2 0x43E JUMPI DUP1 PUSH4 0xAAFF5F16 EQ PUSH2 0x657 JUMPI DUP1 PUSH4 0xB2086499 EQ PUSH2 0x677 JUMPI PUSH1 0x0 DUP1 REVERT JUMPDEST DUP1 PUSH4 0x3408E470 GT PUSH2 0x1A6 JUMPI DUP1 PUSH4 0x71BA2FD6 GT PUSH2 0x175 JUMPI DUP1 PUSH4 0x71BA2FD6 EQ PUSH2 0x43E JUMPI DUP1 PUSH4 0x76A386DC EQ PUSH2 0x476 JUMPI DUP1 PUSH4 0x7A145748 EQ PUSH2 0x50F JUMPI DUP1 PUSH4 0x7F6DF8E6 EQ PUSH2 0x547 JUMPI DUP1 PUSH4 0x907C5E7E EQ PUSH2 0x575 JUMPI PUSH1 0x0 DUP1 REVERT JUMPDEST DUP1 PUSH4 0x3408E470 EQ PUSH2 0x3C5 JUMPI DUP1 PUSH4 0x3E0DD83E EQ PUSH2 0x3DE JUMPI DUP1 PUSH4 0x40A7BB10 EQ PUSH2 0x3FE JUMPI DUP1 PUSH4 0x42D65A8D EQ PUSH2 0x41E JUMPI PUSH1 0x0 DUP1 REVERT JUMPDEST DUP1 PUSH4 0x10DDB137 GT PUSH2 0x1ED JUMPI DUP1 PUSH4 0x10DDB137 EQ PUSH2 0x254 JUMPI DUP1 PUSH4 0x12A9EE6B EQ PUSH2 0x2D8 JUMPI DUP1 PUSH4 0x240DE277 EQ PUSH2 0x307 JUMPI DUP1 PUSH4 0x272BD384 EQ PUSH2 0x32D JUMPI DUP1 PUSH4 0x2C365E25 EQ PUSH2 0x34F JUMPI PUSH1 0x0 DUP1 REVERT JUMPDEST DUP1 PUSH4 0x7D3277F EQ PUSH2 0x21F JUMPI DUP1 PUSH4 0x7E0DB17 EQ PUSH2 0x254 JUMPI DUP1 PUSH4 0x96568F6 EQ PUSH2 0x274 JUMPI DUP1 PUSH4 0xEAF6EA6 EQ PUSH2 0x2A8 JUMPI JUMPDEST PUSH1 0x0 DUP1 REVERT JUMPDEST CALLVALUE DUP1 ISZERO PUSH2 0x22B JUMPI PUSH1 0x0 DUP1 REVERT JUMPDEST POP PUSH1 0x4 SLOAD PUSH1 0x5 SLOAD PUSH2 0x23A SWAP2 SWAP1 DUP3 JUMP JUMPDEST PUSH1 0x40 DUP1 MLOAD SWAP3 DUP4 MSTORE PUSH1 0x20 DUP4 ADD SWAP2 SWAP1 SWAP2 MSTORE ADD JUMPDEST PUSH1 0x40 MLOAD DUP1 SWAP2 SUB SWAP1 RETURN JUMPDEST CALLVALUE DUP1 ISZERO PUSH2 0x260 JUMPI PUSH1 0x0 DUP1 REVERT JUMPDEST POP PUSH2 0x272 PUSH2 0x26F CALLDATASIZE PUSH1 0x4 PUSH2 0x21CB JUMP JUMPDEST POP JUMP JUMPDEST STOP JUMPDEST CALLVALUE DUP1 ISZERO PUSH2 0x280 JUMPI PUSH1 0x0 DUP1 REVERT JUMPDEST POP PUSH2 0x295 PUSH2 0x28F CALLDATASIZE PUSH1 0x4 PUSH2 0x21FB JUMP JUMPDEST POP PUSH1 0x1 SWAP1 JUMP JUMPDEST PUSH1 0x40 MLOAD PUSH2 0xFFFF SWAP1 SWAP2 AND DUP2 MSTORE PUSH1 0x20 ADD PUSH2 0x24B JUMP JUMPDEST CALLVALUE DUP1 ISZERO PUSH2 0x2B4 JUMPI PUSH1 0x0 DUP1 REVERT JUMPDEST POP PUSH2 0x2C8 PUSH2 0x2C3 CALLDATASIZE PUSH1 0x4 PUSH2 0x2260 JUMP JUMPDEST PUSH2 0x8AE JUMP JUMPDEST PUSH1 0x40 MLOAD SWAP1 ISZERO ISZERO DUP2 MSTORE PUSH1 0x20 ADD PUSH2 0x24B JUMP JUMPDEST CALLVALUE DUP1 ISZERO PUSH2 0x2E4 JUMPI PUSH1 0x0 DUP1 REVERT JUMPDEST POP PUSH2 0x2F8 PUSH2 0x2F3 CALLDATASIZE PUSH1 0x4 PUSH2 0x2354 JUMP JUMPDEST PUSH2 0x8F4 JUMP JUMPDEST PUSH1 0x40 MLOAD PUSH2 0x24B SWAP4 SWAP3 SWAP2 SWAP1 PUSH2 0x23F0 JUMP JUMPDEST CALLVALUE DUP1 ISZERO PUSH2 0x313 JUMPI PUSH1 0x0 DUP1 REVERT JUMPDEST POP PUSH2 0x272 PUSH2 0x322 CALLDATASIZE PUSH1 0x4 PUSH2 0x242C JUMP JUMPDEST PUSH1 0x4 SWAP2 SWAP1 SWAP2 SSTORE PUSH1 0x5 SSTORE JUMP JUMPDEST CALLVALUE DUP1 ISZERO PUSH2 0x339 JUMPI PUSH1 0x0 DUP1 REVERT JUMPDEST POP PUSH2 0x342 PUSH2 0x9F1 JUMP JUMPDEST PUSH1 0x40 MLOAD PUSH2 0x24B SWAP2 SWAP1 PUSH2 0x244E JUMP JUMPDEST CALLVALUE DUP1 ISZERO PUSH2 0x35B JUMPI PUSH1 0x0 DUP1 REVERT JUMPDEST POP PUSH2 0x272 PUSH2 0x36A CALLDATASIZE PUSH1 0x4 PUSH2 0x248F JUMP JUMPDEST PUSH1 0x1 PUSH1 0x1 PUSH1 0x80 SHL SUB SWAP5 DUP6 AND PUSH1 0x1 PUSH1 0x80 SHL SWAP5 DUP7 AND DUP6 MUL OR PUSH1 0x2 SSTORE PUSH1 0x3 DUP1 SLOAD SWAP4 SWAP1 SWAP6 AND PUSH1 0x1 PUSH1 0x1 PUSH1 0xC0 SHL SUB NOT SWAP1 SWAP4 AND SWAP3 SWAP1 SWAP3 OR PUSH1 0x1 PUSH1 0x1 PUSH1 0x40 SHL SUB SWAP2 DUP3 AND SWAP1 SWAP4 MUL SWAP3 SWAP1 SWAP3 OR PUSH1 0x1 PUSH1 0x1 PUSH1 0xC0 SHL SUB AND PUSH1 0x1 PUSH1 0xC0 SHL SWAP2 SWAP1 SWAP3 AND MUL OR SWAP1 SSTORE JUMP JUMPDEST CALLVALUE DUP1 ISZERO PUSH2 0x3D1 JUMPI PUSH1 0x0 DUP1 REVERT JUMPDEST POP PUSH1 0x1 SLOAD PUSH2 0xFFFF AND PUSH2 0x295 JUMP JUMPDEST CALLVALUE DUP1 ISZERO PUSH2 0x3EA JUMPI PUSH1 0x0 DUP1 REVERT JUMPDEST POP PUSH1 0x1 SLOAD PUSH2 0x2C8 SWAP1 PUSH3 0x10000 SWAP1 DIV PUSH1 0xFF AND DUP2 JUMP JUMPDEST CALLVALUE DUP1 ISZERO PUSH2 0x40A JUMPI PUSH1 0x0 DUP1 REVERT JUMPDEST POP PUSH2 0x23A PUSH2 0x419 CALLDATASIZE PUSH1 0x4 PUSH2 0x24F4 JUMP JUMPDEST PUSH2 0xA7F JUMP JUMPDEST CALLVALUE DUP1 ISZERO PUSH2 0x42A JUMPI PUSH1 0x0 DUP1 REVERT JUMPDEST POP PUSH2 0x272 PUSH2 0x439 CALLDATASIZE PUSH1 0x4 PUSH2 0x2260 JUMP JUMPDEST PUSH2 0xB7E JUMP JUMPDEST CALLVALUE DUP1 ISZERO PUSH2 0x44A JUMPI PUSH1 0x0 DUP1 REVERT JUMPDEST POP PUSH2 0x45E PUSH2 0x459 CALLDATASIZE PUSH1 0x4 PUSH2 0x21FB JUMP JUMPDEST POP ADDRESS SWAP1 JUMP JUMPDEST PUSH1 0x40 MLOAD PUSH1 0x1 PUSH1 0x1 PUSH1 0xA0 SHL SUB SWAP1 SWAP2 AND DUP2 MSTORE PUSH1 0x20 ADD PUSH2 0x24B JUMP JUMPDEST CALLVALUE DUP1 ISZERO PUSH2 0x482 JUMPI PUSH1 0x0 DUP1 REVERT JUMPDEST POP PUSH2 0x4E2 PUSH2 0x491 CALLDATASIZE PUSH1 0x4 PUSH2 0x2594 JUMP JUMPDEST PUSH1 0xA PUSH1 0x20 SWAP1 DUP2 MSTORE PUSH1 0x0 SWAP3 DUP4 MSTORE PUSH1 0x40 SWAP1 SWAP3 KECCAK256 DUP2 MLOAD DUP1 DUP4 ADD DUP5 ADD DUP1 MLOAD SWAP3 DUP2 MSTORE SWAP1 DUP5 ADD SWAP3 SWAP1 SWAP4 ADD SWAP2 SWAP1 SWAP2 KECCAK256 SWAP2 MSTORE DUP1 SLOAD PUSH1 0x1 SWAP1 SWAP2 ADD SLOAD PUSH1 0x1 PUSH1 0x1 PUSH1 0x40 SHL SUB DUP3 AND SWAP2 PUSH1 0x1 PUSH1 0x40 SHL SWAP1 DIV PUSH1 0x1 PUSH1 0x1 PUSH1 0xA0 SHL SUB AND SWAP1 DUP4 JUMP JUMPDEST PUSH1 0x40 DUP1 MLOAD PUSH1 0x1 PUSH1 0x1 PUSH1 0x40 SHL SUB SWAP1 SWAP5 AND DUP5 MSTORE PUSH1 0x1 PUSH1 0x1 PUSH1 0xA0 SHL SUB SWAP1 SWAP3 AND PUSH1 0x20 DUP5 ADD MSTORE SWAP1 DUP3 ADD MSTORE PUSH1 0x60 ADD PUSH2 0x24B JUMP JUMPDEST CALLVALUE DUP1 ISZERO PUSH2 0x51B JUMPI PUSH1 0x0 DUP1 REVERT JUMPDEST POP PUSH2 0x52F PUSH2 0x52A CALLDATASIZE PUSH1 0x4 PUSH2 0x25E1 JUMP JUMPDEST PUSH2 0xCC5 JUMP JUMPDEST PUSH1 0x40 MLOAD PUSH1 0x1 PUSH1 0x1 PUSH1 0x40 SHL SUB SWAP1 SWAP2 AND DUP2 MSTORE PUSH1 0x20 ADD PUSH2 0x24B JUMP JUMPDEST CALLVALUE DUP1 ISZERO PUSH2 0x553 JUMPI PUSH1 0x0 DUP1 REVERT JUMPDEST POP PUSH2 0x567 PUSH2 0x562 CALLDATASIZE PUSH1 0x4 PUSH2 0x2260 JUMP JUMPDEST PUSH2 0xCFD JUMP JUMPDEST PUSH1 0x40 MLOAD SWAP1 DUP2 MSTORE PUSH1 0x20 ADD PUSH2 0x24B JUMP JUMPDEST CALLVALUE DUP1 ISZERO PUSH2 0x581 JUMPI PUSH1 0x0 DUP1 REVERT JUMPDEST POP PUSH1 0x2 SLOAD PUSH1 0x3 SLOAD PUSH2 0x5C1 SWAP2 PUSH1 0x1 PUSH1 0x1 PUSH1 0x80 SHL SUB DUP1 DUP3 AND SWAP3 PUSH1 0x1 PUSH1 0x80 SHL SWAP3 DUP4 SWAP1 DIV DUP3 AND SWAP3 SWAP2 DUP2 AND SWAP2 PUSH1 0x1 PUSH1 0x1 PUSH1 0x40 SHL SUB SWAP1 DUP3 DIV DUP2 AND SWAP2 PUSH1 0x1 PUSH1 0xC0 SHL SWAP1 DIV AND DUP6 JUMP JUMPDEST PUSH1 0x40 DUP1 MLOAD PUSH1 0x1 PUSH1 0x1 PUSH1 0x80 SHL SUB SWAP7 DUP8 AND DUP2 MSTORE SWAP5 DUP7 AND PUSH1 0x20 DUP7 ADD MSTORE SWAP3 SWAP1 SWAP5 AND SWAP2 DUP4 ADD SWAP2 SWAP1 SWAP2 MSTORE PUSH1 0x1 PUSH1 0x1 PUSH1 0x40 SHL SUB SWAP1 DUP2 AND PUSH1 0x60 DUP4 ADD MSTORE SWAP1 SWAP2 AND PUSH1 0x80 DUP3 ADD MSTORE PUSH1 0xA0 ADD PUSH2 0x24B JUMP JUMPDEST CALLVALUE DUP1 ISZERO PUSH2 0x611 JUMPI PUSH1 0x0 DUP1 REVERT JUMPDEST POP PUSH2 0x52F PUSH2 0x620 CALLDATASIZE PUSH1 0x4 PUSH2 0x2594 JUMP JUMPDEST PUSH1 0x8 PUSH1 0x20 SWAP1 DUP2 MSTORE PUSH1 0x0 SWAP3 DUP4 MSTORE PUSH1 0x40 SWAP1 SWAP3 KECCAK256 DUP2 MLOAD DUP1 DUP4 ADD DUP5 ADD DUP1 MLOAD SWAP3 DUP2 MSTORE SWAP1 DUP5 ADD SWAP3 SWAP1 SWAP4 ADD SWAP2 SWAP1 SWAP2 KECCAK256 SWAP2 MSTORE SLOAD PUSH1 0x1 PUSH1 0x1 PUSH1 0x40 SHL SUB AND DUP2 JUMP JUMPDEST CALLVALUE DUP1 ISZERO PUSH2 0x663 JUMPI PUSH1 0x0 DUP1 REVERT JUMPDEST POP PUSH2 0x272 PUSH2 0x672 CALLDATASIZE PUSH1 0x4 PUSH2 0x2618 JUMP JUMPDEST PUSH2 0xD39 JUMP JUMPDEST CALLVALUE DUP1 ISZERO PUSH2 0x683 JUMPI PUSH1 0x0 DUP1 REVERT JUMPDEST POP PUSH2 0x52F PUSH2 0x692 CALLDATASIZE PUSH1 0x4 PUSH2 0x25E1 JUMP JUMPDEST PUSH1 0x9 PUSH1 0x20 SWAP1 DUP2 MSTORE PUSH1 0x0 SWAP3 DUP4 MSTORE PUSH1 0x40 DUP1 DUP5 KECCAK256 SWAP1 SWAP2 MSTORE SWAP1 DUP3 MSTORE SWAP1 KECCAK256 SLOAD PUSH1 0x1 PUSH1 0x1 PUSH1 0x40 SHL SUB AND DUP2 JUMP JUMPDEST CALLVALUE DUP1 ISZERO PUSH2 0x6C4 JUMPI PUSH1 0x0 DUP1 REVERT JUMPDEST POP PUSH2 0x272 PUSH2 0x6D3 CALLDATASIZE PUSH1 0x4 PUSH2 0x2698 JUMP JUMPDEST PUSH1 0x6 SSTORE JUMP JUMPDEST CALLVALUE DUP1 ISZERO PUSH2 0x6E4 JUMPI PUSH1 0x0 DUP1 REVERT JUMPDEST POP PUSH2 0x272 PUSH2 0x6F3 CALLDATASIZE PUSH1 0x4 PUSH2 0x26B1 JUMP JUMPDEST PUSH1 0x1 PUSH1 0x1 PUSH1 0xA0 SHL SUB SWAP2 DUP3 AND PUSH1 0x0 SWAP1 DUP2 MSTORE PUSH1 0x20 DUP2 SWAP1 MSTORE PUSH1 0x40 SWAP1 KECCAK256 DUP1 SLOAD PUSH1 0x1 PUSH1 0x1 PUSH1 0xA0 SHL SUB NOT AND SWAP2 SWAP1 SWAP3 AND OR SWAP1 SSTORE JUMP JUMPDEST CALLVALUE DUP1 ISZERO PUSH2 0x72D JUMPI PUSH1 0x0 DUP1 REVERT JUMPDEST POP PUSH2 0x272 PUSH2 0x73C CALLDATASIZE PUSH1 0x4 PUSH2 0x26CF JUMP JUMPDEST PUSH2 0xF4F JUMP JUMPDEST PUSH2 0x272 PUSH2 0x74F CALLDATASIZE PUSH1 0x4 PUSH2 0x277E JUMP JUMPDEST PUSH2 0x168A JUMP JUMPDEST CALLVALUE DUP1 ISZERO PUSH2 0x760 JUMPI PUSH1 0x0 DUP1 REVERT JUMPDEST POP PUSH2 0x45E PUSH2 0x76F CALLDATASIZE PUSH1 0x4 PUSH2 0x21FB JUMP JUMPDEST PUSH1 0x0 PUSH1 0x20 DUP2 SWAP1 MSTORE SWAP1 DUP2 MSTORE PUSH1 0x40 SWAP1 KECCAK256 SLOAD PUSH1 0x1 PUSH1 0x1 PUSH1 0xA0 SHL SUB AND DUP2 JUMP JUMPDEST CALLVALUE DUP1 ISZERO PUSH2 0x796 JUMPI PUSH1 0x0 DUP1 REVERT JUMPDEST POP PUSH2 0x2C8 PUSH1 0xC SLOAD PUSH2 0x100 SWAP1 DIV PUSH1 0xFF AND PUSH1 0x2 EQ SWAP1 JUMP JUMPDEST CALLVALUE DUP1 ISZERO PUSH2 0x7B7 JUMPI PUSH1 0x0 DUP1 REVERT JUMPDEST POP PUSH2 0x272 PUSH2 0x7C6 CALLDATASIZE PUSH1 0x4 PUSH2 0x2845 JUMP JUMPDEST POP POP POP POP JUMP JUMPDEST CALLVALUE DUP1 ISZERO PUSH2 0x7D8 JUMPI PUSH1 0x0 DUP1 REVERT JUMPDEST POP PUSH2 0x272 PUSH1 0x1 DUP1 SLOAD PUSH3 0xFF0000 NOT AND PUSH3 0x10000 OR SWAP1 SSTORE JUMP JUMPDEST CALLVALUE DUP1 ISZERO PUSH2 0x7FB JUMPI PUSH1 0x0 DUP1 REVERT JUMPDEST POP PUSH1 0x1 SLOAD PUSH2 0x295 SWAP1 PUSH2 0xFFFF AND DUP2 JUMP JUMPDEST CALLVALUE DUP1 ISZERO PUSH2 0x816 JUMPI PUSH1 0x0 DUP1 REVERT JUMPDEST POP PUSH2 0x2C8 PUSH1 0xC SLOAD PUSH1 0xFF AND PUSH1 0x2 EQ SWAP1 JUMP JUMPDEST CALLVALUE DUP1 ISZERO PUSH2 0x832 JUMPI PUSH1 0x0 DUP1 REVERT JUMPDEST POP PUSH2 0x342 PUSH2 0x841 CALLDATASIZE PUSH1 0x4 PUSH2 0x28AC JUMP JUMPDEST PUSH1 0x40 DUP1 MLOAD PUSH1 0x20 DUP2 ADD SWAP1 SWAP2 MSTORE PUSH1 0x0 DUP2 MSTORE SWAP5 SWAP4 POP POP POP POP JUMP JUMPDEST CALLVALUE DUP1 ISZERO PUSH2 0x864 JUMPI PUSH1 0x0 DUP1 REVERT JUMPDEST POP PUSH2 0x567 PUSH1 0x6 SLOAD DUP2 JUMP JUMPDEST CALLVALUE DUP1 ISZERO PUSH2 0x87A JUMPI PUSH1 0x0 DUP1 REVERT JUMPDEST POP PUSH2 0x272 PUSH2 0x889 CALLDATASIZE PUSH1 0x4 PUSH2 0x28F9 JUMP JUMPDEST PUSH2 0x1C25 JUMP JUMPDEST CALLVALUE DUP1 ISZERO PUSH2 0x89A JUMPI PUSH1 0x0 DUP1 REVERT JUMPDEST POP PUSH2 0x52F PUSH2 0x8A9 CALLDATASIZE PUSH1 0x4 PUSH2 0x2260 JUMP JUMPDEST PUSH2 0x1C35 JUMP JUMPDEST PUSH2 0xFFFF DUP4 AND PUSH1 0x0 SWAP1 DUP2 MSTORE PUSH1 0xA PUSH1 0x20 MSTORE PUSH1 0x40 DUP1 DUP3 KECCAK256 SWAP1 MLOAD DUP3 SWAP2 SWAP1 PUSH2 0x8D4 SWAP1 DUP7 SWAP1 DUP7 SWAP1 PUSH2 0x2935 JUMP JUMPDEST SWAP1 DUP2 MSTORE PUSH1 0x40 MLOAD SWAP1 DUP2 SWAP1 SUB PUSH1 0x20 ADD SWAP1 KECCAK256 PUSH1 0x1 ADD SLOAD ISZERO ISZERO SWAP2 POP POP JUMPDEST SWAP4 SWAP3 POP POP POP JUMP JUMPDEST PUSH1 0xB PUSH1 0x20 SWAP1 DUP2 MSTORE PUSH1 0x0 DUP5 DUP2 MSTORE PUSH1 0x40 SWAP1 KECCAK256 DUP4 MLOAD DUP1 DUP6 ADD DUP4 ADD DUP1 MLOAD SWAP3 DUP2 MSTORE SWAP1 DUP4 ADD SWAP3 DUP6 ADD SWAP3 SWAP1 SWAP3 KECCAK256 SWAP2 MSTORE DUP1 SLOAD DUP3 SWAP1 DUP2 LT PUSH2 0x92B JUMPI PUSH1 0x0 DUP1 REVERT JUMPDEST PUSH1 0x0 SWAP2 DUP3 MSTORE PUSH1 0x20 SWAP1 SWAP2 KECCAK256 PUSH1 0x2 SWAP1 SWAP2 MUL ADD DUP1 SLOAD PUSH1 0x1 DUP3 ADD DUP1 SLOAD PUSH1 0x1 PUSH1 0x1 PUSH1 0xA0 SHL SUB DUP4 AND SWAP7 POP PUSH1 0x1 PUSH1 0xA0 SHL SWAP1 SWAP3 DIV PUSH1 0x1 PUSH1 0x1 PUSH1 0x40 SHL SUB AND SWAP5 POP SWAP2 SWAP3 POP PUSH2 0x96E SWAP1 PUSH2 0x2945 JUMP JUMPDEST DUP1 PUSH1 0x1F ADD PUSH1 0x20 DUP1 SWAP2 DIV MUL PUSH1 0x20 ADD PUSH1 0x40 MLOAD SWAP1 DUP2 ADD PUSH1 0x40 MSTORE DUP1 SWAP3 SWAP2 SWAP1 DUP2 DUP2 MSTORE PUSH1 0x20 ADD DUP3 DUP1 SLOAD PUSH2 0x99A SWAP1 PUSH2 0x2945 JUMP JUMPDEST DUP1 ISZERO PUSH2 0x9E7 JUMPI DUP1 PUSH1 0x1F LT PUSH2 0x9BC JUMPI PUSH2 0x100 DUP1 DUP4 SLOAD DIV MUL DUP4 MSTORE SWAP2 PUSH1 0x20 ADD SWAP2 PUSH2 0x9E7 JUMP JUMPDEST DUP3 ADD SWAP2 SWAP1 PUSH1 0x0 MSTORE PUSH1 0x20 PUSH1 0x0 KECCAK256 SWAP1 JUMPDEST DUP2 SLOAD DUP2 MSTORE SWAP1 PUSH1 0x1 ADD SWAP1 PUSH1 0x20 ADD DUP1 DUP4 GT PUSH2 0x9CA JUMPI DUP3 SWAP1 SUB PUSH1 0x1F AND DUP3 ADD SWAP2 JUMPDEST POP POP POP POP POP SWAP1 POP DUP4 JUMP JUMPDEST PUSH1 0x7 DUP1 SLOAD PUSH2 0x9FE SWAP1 PUSH2 0x2945 JUMP JUMPDEST DUP1 PUSH1 0x1F ADD PUSH1 0x20 DUP1 SWAP2 DIV MUL PUSH1 0x20 ADD PUSH1 0x40 MLOAD SWAP1 DUP2 ADD PUSH1 0x40 MSTORE DUP1 SWAP3 SWAP2 SWAP1 DUP2 DUP2 MSTORE PUSH1 0x20 ADD DUP3 DUP1 SLOAD PUSH2 0xA2A SWAP1 PUSH2 0x2945 JUMP JUMPDEST DUP1 ISZERO PUSH2 0xA77 JUMPI DUP1 PUSH1 0x1F LT PUSH2 0xA4C JUMPI PUSH2 0x100 DUP1 DUP4 SLOAD DIV MUL DUP4 MSTORE SWAP2 PUSH1 0x20 ADD SWAP2 PUSH2 0xA77 JUMP JUMPDEST DUP3 ADD SWAP2 SWAP1 PUSH1 0x0 MSTORE PUSH1 0x20 PUSH1 0x0 KECCAK256 SWAP1 JUMPDEST DUP2 SLOAD DUP2 MSTORE SWAP1 PUSH1 0x1 ADD SWAP1 PUSH1 0x20 ADD DUP1 DUP4 GT PUSH2 0xA5A JUMPI DUP3 SWAP1 SUB PUSH1 0x1F AND DUP3 ADD SWAP2 JUMPDEST POP POP POP POP POP DUP2 JUMP JUMPDEST PUSH1 0x0 DUP1 PUSH1 0x0 DUP1 DUP5 MLOAD GT PUSH2 0xB1C JUMPI PUSH1 0x7 DUP1 SLOAD PUSH2 0xA99 SWAP1 PUSH2 0x2945 JUMP JUMPDEST DUP1 PUSH1 0x1F ADD PUSH1 0x20 DUP1 SWAP2 DIV MUL PUSH1 0x20 ADD PUSH1 0x40 MLOAD SWAP1 DUP2 ADD PUSH1 0x40 MSTORE DUP1 SWAP3 SWAP2 SWAP1 DUP2 DUP2 MSTORE PUSH1 0x20 ADD DUP3 DUP1 SLOAD PUSH2 0xAC5 SWAP1 PUSH2 0x2945 JUMP JUMPDEST DUP1 ISZERO PUSH2 0xB12 JUMPI DUP1 PUSH1 0x1F LT PUSH2 0xAE7 JUMPI PUSH2 0x100 DUP1 DUP4 SLOAD DIV MUL DUP4 MSTORE SWAP2 PUSH1 0x20 ADD SWAP2 PUSH2 0xB12 JUMP JUMPDEST DUP3 ADD SWAP2 SWAP1 PUSH1 0x0 MSTORE PUSH1 0x20 PUSH1 0x0 KECCAK256 SWAP1 JUMPDEST DUP2 SLOAD DUP2 MSTORE SWAP1 PUSH1 0x1 ADD SWAP1 PUSH1 0x20 ADD DUP1 DUP4 GT PUSH2 0xAF5 JUMPI DUP3 SWAP1 SUB PUSH1 0x1F AND DUP3 ADD SWAP2 JUMPDEST POP POP POP POP POP PUSH2 0xB1E JUMP JUMPDEST DUP4 JUMPDEST SWAP1 POP PUSH1 0x0 PUSH2 0xB31 DUP10 PUSH1 0x1 DUP11 DUP11 MLOAD DUP7 PUSH2 0x1C7A JUMP JUMPDEST SWAP1 POP PUSH1 0x0 PUSH2 0xB42 DUP8 DUP4 PUSH1 0x6 SLOAD PUSH2 0x1E13 JUMP JUMPDEST SWAP1 POP DUP7 PUSH2 0xB52 JUMPI DUP1 SWAP5 POP DUP5 PUSH2 0xB57 JUMP JUMPDEST DUP1 SWAP4 POP DUP4 JUMPDEST POP PUSH1 0x6 SLOAD PUSH2 0xB65 DUP4 DUP8 PUSH2 0x2995 JUMP JUMPDEST PUSH2 0xB6F SWAP2 SWAP1 PUSH2 0x2995 JUMP JUMPDEST SWAP5 POP POP POP POP SWAP6 POP SWAP6 SWAP4 POP POP POP POP JUMP JUMPDEST PUSH2 0xFFFF DUP4 AND PUSH1 0x0 SWAP1 DUP2 MSTORE PUSH1 0xA PUSH1 0x20 MSTORE PUSH1 0x40 DUP1 DUP3 KECCAK256 SWAP1 MLOAD PUSH2 0xBA1 SWAP1 DUP6 SWAP1 DUP6 SWAP1 PUSH2 0x2935 JUMP JUMPDEST SWAP1 DUP2 MSTORE PUSH1 0x40 MLOAD SWAP1 DUP2 SWAP1 SUB PUSH1 0x20 ADD SWAP1 KECCAK256 PUSH1 0x1 DUP2 ADD SLOAD SWAP1 SWAP2 POP PUSH2 0xC09 JUMPI PUSH1 0x40 MLOAD PUSH3 0x461BCD PUSH1 0xE5 SHL DUP2 MSTORE PUSH1 0x20 PUSH1 0x4 DUP3 ADD DUP2 SWAP1 MSTORE PUSH1 0x24 DUP3 ADD MSTORE PUSH32 0x4C617965725A65726F4D6F636B3A206E6F2073746F726564207061796C6F6164 PUSH1 0x44 DUP3 ADD MSTORE PUSH1 0x64 ADD JUMPDEST PUSH1 0x40 MLOAD DUP1 SWAP2 SUB SWAP1 REVERT JUMPDEST DUP1 SLOAD PUSH1 0x1 PUSH1 0x40 SHL SWAP1 DIV PUSH1 0x1 PUSH1 0x1 PUSH1 0xA0 SHL SUB AND CALLER EQ PUSH2 0xC69 JUMPI PUSH1 0x40 MLOAD PUSH3 0x461BCD PUSH1 0xE5 SHL DUP2 MSTORE PUSH1 0x20 PUSH1 0x4 DUP3 ADD MSTORE PUSH1 0x1D PUSH1 0x24 DUP3 ADD MSTORE PUSH32 0x4C617965725A65726F4D6F636B3A20696E76616C69642063616C6C6572000000 PUSH1 0x44 DUP3 ADD MSTORE PUSH1 0x64 ADD PUSH2 0xC00 JUMP JUMPDEST DUP1 SLOAD PUSH1 0x1 PUSH1 0x1 PUSH1 0xE0 SHL SUB NOT AND DUP2 SSTORE PUSH1 0x0 PUSH1 0x1 DUP3 ADD SSTORE PUSH1 0x40 MLOAD PUSH32 0x23D2684F396E92A6E2FF2D16F98E6FEA00D50CB27A64B531BC0748F730211F98 SWAP1 PUSH2 0xCB2 SWAP1 DUP7 SWAP1 DUP7 SWAP1 DUP7 SWAP1 PUSH2 0x29D1 JUMP JUMPDEST PUSH1 0x40 MLOAD DUP1 SWAP2 SUB SWAP1 LOG1 PUSH2 0x7C6 DUP5 DUP5 DUP5 PUSH2 0x1E50 JUMP JUMPDEST PUSH2 0xFFFF DUP3 AND PUSH1 0x0 SWAP1 DUP2 MSTORE PUSH1 0x9 PUSH1 0x20 SWAP1 DUP2 MSTORE PUSH1 0x40 DUP1 DUP4 KECCAK256 PUSH1 0x1 PUSH1 0x1 PUSH1 0xA0 SHL SUB DUP6 AND DUP5 MSTORE SWAP1 SWAP2 MSTORE SWAP1 KECCAK256 SLOAD PUSH1 0x1 PUSH1 0x1 PUSH1 0x40 SHL SUB AND JUMPDEST SWAP3 SWAP2 POP POP JUMP JUMPDEST PUSH2 0xFFFF DUP4 AND PUSH1 0x0 SWAP1 DUP2 MSTORE PUSH1 0xB PUSH1 0x20 MSTORE PUSH1 0x40 DUP1 DUP3 KECCAK256 SWAP1 MLOAD PUSH2 0xD20 SWAP1 DUP6 SWAP1 DUP6 SWAP1 PUSH2 0x2935 JUMP JUMPDEST SWAP1 DUP2 MSTORE PUSH1 0x40 MLOAD SWAP1 DUP2 SWAP1 SUB PUSH1 0x20 ADD SWAP1 KECCAK256 SLOAD SWAP1 POP SWAP4 SWAP3 POP POP POP JUMP JUMPDEST PUSH2 0xFFFF DUP6 AND PUSH1 0x0 SWAP1 DUP2 MSTORE PUSH1 0xA PUSH1 0x20 MSTORE PUSH1 0x40 DUP1 DUP3 KECCAK256 SWAP1 MLOAD PUSH2 0xD5C SWAP1 DUP8 SWAP1 DUP8 SWAP1 PUSH2 0x2935 JUMP JUMPDEST SWAP1 DUP2 MSTORE PUSH1 0x40 MLOAD SWAP1 DUP2 SWAP1 SUB PUSH1 0x20 ADD SWAP1 KECCAK256 PUSH1 0x1 DUP2 ADD SLOAD SWAP1 SWAP2 POP PUSH2 0xDBF JUMPI PUSH1 0x40 MLOAD PUSH3 0x461BCD PUSH1 0xE5 SHL DUP2 MSTORE PUSH1 0x20 PUSH1 0x4 DUP3 ADD DUP2 SWAP1 MSTORE PUSH1 0x24 DUP3 ADD MSTORE PUSH32 0x4C617965725A65726F4D6F636B3A206E6F2073746F726564207061796C6F6164 PUSH1 0x44 DUP3 ADD MSTORE PUSH1 0x64 ADD PUSH2 0xC00 JUMP JUMPDEST DUP1 SLOAD PUSH1 0x1 PUSH1 0x1 PUSH1 0x40 SHL SUB AND DUP3 EQ DUP1 ISZERO PUSH2 0xDF2 JUMPI POP DUP1 PUSH1 0x1 ADD SLOAD DUP4 DUP4 PUSH1 0x40 MLOAD PUSH2 0xDE8 SWAP3 SWAP2 SWAP1 PUSH2 0x2935 JUMP JUMPDEST PUSH1 0x40 MLOAD DUP1 SWAP2 SUB SWAP1 KECCAK256 EQ JUMPDEST PUSH2 0xE3E JUMPI PUSH1 0x40 MLOAD PUSH3 0x461BCD PUSH1 0xE5 SHL DUP2 MSTORE PUSH1 0x20 PUSH1 0x4 DUP3 ADD MSTORE PUSH1 0x1E PUSH1 0x24 DUP3 ADD MSTORE PUSH32 0x4C617965725A65726F4D6F636B3A20696E76616C6964207061796C6F61640000 PUSH1 0x44 DUP3 ADD MSTORE PUSH1 0x64 ADD PUSH2 0xC00 JUMP JUMPDEST DUP1 SLOAD PUSH1 0x1 PUSH1 0x1 PUSH1 0xE0 SHL SUB NOT DUP2 AND DUP3 SSTORE PUSH1 0x0 PUSH1 0x1 DUP4 ADD DUP2 SWAP1 SSTORE PUSH2 0xFFFF DUP9 AND DUP2 MSTORE PUSH1 0x8 PUSH1 0x20 MSTORE PUSH1 0x40 DUP1 DUP3 KECCAK256 SWAP1 MLOAD PUSH1 0x1 PUSH1 0x40 SHL SWAP1 SWAP4 DIV PUSH1 0x1 PUSH1 0x1 PUSH1 0xA0 SHL SUB AND SWAP3 PUSH2 0xE88 SWAP1 DUP10 SWAP1 DUP10 SWAP1 PUSH2 0x2935 JUMP JUMPDEST SWAP1 DUP2 MSTORE PUSH1 0x40 MLOAD SWAP1 DUP2 SWAP1 SUB PUSH1 0x20 ADD DUP2 KECCAK256 SLOAD PUSH3 0x1D3567 PUSH1 0xE0 SHL DUP3 MSTORE PUSH1 0x1 PUSH1 0x1 PUSH1 0x40 SHL SUB AND SWAP2 POP PUSH1 0x1 PUSH1 0x1 PUSH1 0xA0 SHL SUB DUP4 AND SWAP1 PUSH3 0x1D3567 SWAP1 PUSH2 0xED4 SWAP1 DUP12 SWAP1 DUP12 SWAP1 DUP12 SWAP1 DUP8 SWAP1 DUP13 SWAP1 DUP13 SWAP1 PUSH1 0x4 ADD PUSH2 0x29EF JUMP JUMPDEST PUSH1 0x0 PUSH1 0x40 MLOAD DUP1 DUP4 SUB DUP2 PUSH1 0x0 DUP8 DUP1 EXTCODESIZE ISZERO DUP1 ISZERO PUSH2 0xEEE JUMPI PUSH1 0x0 DUP1 REVERT JUMPDEST POP GAS CALL ISZERO DUP1 ISZERO PUSH2 0xF02 JUMPI RETURNDATASIZE PUSH1 0x0 DUP1 RETURNDATACOPY RETURNDATASIZE PUSH1 0x0 REVERT JUMPDEST POP POP POP POP PUSH32 0x612434F39581C8E7D99746C9C20C6EB0CE8C0EB99F007C5719D620841370957D DUP9 DUP9 DUP9 DUP5 DUP7 PUSH1 0x40 MLOAD PUSH2 0xF3D SWAP6 SWAP5 SWAP4 SWAP3 SWAP2 SWAP1 PUSH2 0x2A3C JUMP JUMPDEST PUSH1 0x40 MLOAD DUP1 SWAP2 SUB SWAP1 LOG1 POP POP POP POP POP POP POP POP JUMP JUMPDEST PUSH1 0xC SLOAD PUSH2 0x100 SWAP1 DIV PUSH1 0xFF AND PUSH1 0x1 EQ PUSH2 0xFB5 JUMPI PUSH1 0x40 MLOAD PUSH3 0x461BCD PUSH1 0xE5 SHL DUP2 MSTORE PUSH1 0x20 PUSH1 0x4 DUP3 ADD MSTORE PUSH1 0x24 DUP1 DUP3 ADD MSTORE PUSH32 0x4C617965725A65726F4D6F636B3A206E6F2072656365697665207265656E7472 PUSH1 0x44 DUP3 ADD MSTORE PUSH4 0x616E6379 PUSH1 0xE0 SHL PUSH1 0x64 DUP3 ADD MSTORE PUSH1 0x84 ADD PUSH2 0xC00 JUMP JUMPDEST PUSH1 0xC DUP1 SLOAD PUSH2 0xFF00 NOT AND PUSH2 0x200 OR SWAP1 SSTORE PUSH2 0xFFFF DUP9 AND PUSH1 0x0 SWAP1 DUP2 MSTORE PUSH1 0xA PUSH1 0x20 MSTORE PUSH1 0x40 DUP1 DUP3 KECCAK256 SWAP1 MLOAD PUSH2 0xFE7 SWAP1 DUP11 SWAP1 DUP11 SWAP1 PUSH2 0x2935 JUMP JUMPDEST SWAP1 DUP2 MSTORE PUSH1 0x20 ADD PUSH1 0x40 MLOAD DUP1 SWAP2 SUB SWAP1 KECCAK256 SWAP1 POP PUSH1 0x8 PUSH1 0x0 DUP11 PUSH2 0xFFFF AND PUSH2 0xFFFF AND DUP2 MSTORE PUSH1 0x20 ADD SWAP1 DUP2 MSTORE PUSH1 0x20 ADD PUSH1 0x0 KECCAK256 DUP9 DUP9 PUSH1 0x40 MLOAD PUSH2 0x1022 SWAP3 SWAP2 SWAP1 PUSH2 0x2935 JUMP JUMPDEST SWAP1 DUP2 MSTORE PUSH1 0x40 MLOAD SWAP1 DUP2 SWAP1 SUB PUSH1 0x20 ADD SWAP1 KECCAK256 DUP1 SLOAD PUSH1 0x0 SWAP1 PUSH2 0x1048 SWAP1 PUSH1 0x1 PUSH1 0x1 PUSH1 0x40 SHL SUB AND PUSH2 0x2A85 JUMP JUMPDEST SWAP2 SWAP1 PUSH2 0x100 EXP DUP2 SLOAD DUP2 PUSH1 0x1 PUSH1 0x1 PUSH1 0x40 SHL SUB MUL NOT AND SWAP1 DUP4 PUSH1 0x1 PUSH1 0x1 PUSH1 0x40 SHL SUB AND MUL OR SWAP1 SSTORE PUSH1 0x1 PUSH1 0x1 PUSH1 0x40 SHL SUB AND DUP6 PUSH1 0x1 PUSH1 0x1 PUSH1 0x40 SHL SUB AND EQ PUSH2 0x10CB JUMPI PUSH1 0x40 MLOAD PUSH3 0x461BCD PUSH1 0xE5 SHL DUP2 MSTORE PUSH1 0x20 PUSH1 0x4 DUP3 ADD MSTORE PUSH1 0x1A PUSH1 0x24 DUP3 ADD MSTORE PUSH32 0x4C617965725A65726F4D6F636B3A2077726F6E67206E6F6E6365000000000000 PUSH1 0x44 DUP3 ADD MSTORE PUSH1 0x64 ADD PUSH2 0xC00 JUMP JUMPDEST PUSH1 0x1 DUP2 ADD SLOAD ISZERO PUSH2 0x139D JUMPI PUSH2 0xFFFF DUP10 AND PUSH1 0x0 SWAP1 DUP2 MSTORE PUSH1 0xB PUSH1 0x20 MSTORE PUSH1 0x40 DUP1 DUP3 KECCAK256 SWAP1 MLOAD PUSH2 0x10F8 SWAP1 DUP12 SWAP1 DUP12 SWAP1 PUSH2 0x2935 JUMP JUMPDEST SWAP1 DUP2 MSTORE PUSH1 0x20 ADD PUSH1 0x40 MLOAD DUP1 SWAP2 SUB SWAP1 KECCAK256 SWAP1 POP PUSH1 0x0 PUSH1 0x40 MLOAD DUP1 PUSH1 0x60 ADD PUSH1 0x40 MSTORE DUP1 DUP10 PUSH1 0x1 PUSH1 0x1 PUSH1 0xA0 SHL SUB AND DUP2 MSTORE PUSH1 0x20 ADD DUP9 PUSH1 0x1 PUSH1 0x1 PUSH1 0x40 SHL SUB AND DUP2 MSTORE PUSH1 0x20 ADD DUP7 DUP7 DUP1 DUP1 PUSH1 0x1F ADD PUSH1 0x20 DUP1 SWAP2 DIV MUL PUSH1 0x20 ADD PUSH1 0x40 MLOAD SWAP1 DUP2 ADD PUSH1 0x40 MSTORE DUP1 SWAP4 SWAP3 SWAP2 SWAP1 DUP2 DUP2 MSTORE PUSH1 0x20 ADD DUP4 DUP4 DUP1 DUP3 DUP5 CALLDATACOPY PUSH1 0x0 SWAP3 ADD SWAP2 SWAP1 SWAP2 MSTORE POP POP POP SWAP2 MSTORE POP DUP3 SLOAD SWAP1 SWAP2 POP ISZERO PUSH2 0x132E JUMPI DUP2 SLOAD PUSH1 0x1 DUP2 DUP2 ADD DUP5 SSTORE PUSH1 0x0 DUP5 DUP2 MSTORE PUSH1 0x20 SWAP1 DUP2 SWAP1 KECCAK256 DUP5 MLOAD PUSH1 0x2 SWAP1 SWAP5 MUL ADD DUP1 SLOAD SWAP2 DUP6 ADD MLOAD PUSH1 0x1 PUSH1 0x1 PUSH1 0x40 SHL SUB AND PUSH1 0x1 PUSH1 0xA0 SHL MUL PUSH1 0x1 PUSH1 0x1 PUSH1 0xE0 SHL SUB NOT SWAP1 SWAP3 AND PUSH1 0x1 PUSH1 0x1 PUSH1 0xA0 SHL SUB SWAP1 SWAP5 AND SWAP4 SWAP1 SWAP4 OR OR DUP3 SSTORE PUSH1 0x40 DUP4 ADD MLOAD DUP4 SWAP3 SWAP2 DUP3 ADD SWAP1 PUSH2 0x11D9 SWAP1 DUP3 PUSH2 0x2AFA JUMP JUMPDEST POP POP POP PUSH1 0x0 JUMPDEST DUP3 SLOAD PUSH2 0x11ED SWAP1 PUSH1 0x1 SWAP1 PUSH2 0x2BB9 JUMP JUMPDEST DUP2 LT ISZERO PUSH2 0x12B3 JUMPI DUP3 DUP2 DUP2 SLOAD DUP2 LT PUSH2 0x1206 JUMPI PUSH2 0x1206 PUSH2 0x2BCC JUMP JUMPDEST SWAP1 PUSH1 0x0 MSTORE PUSH1 0x20 PUSH1 0x0 KECCAK256 SWAP1 PUSH1 0x2 MUL ADD DUP4 DUP3 PUSH1 0x1 PUSH2 0x1222 SWAP2 SWAP1 PUSH2 0x2995 JUMP JUMPDEST DUP2 SLOAD DUP2 LT PUSH2 0x1232 JUMPI PUSH2 0x1232 PUSH2 0x2BCC JUMP JUMPDEST PUSH1 0x0 SWAP2 DUP3 MSTORE PUSH1 0x20 SWAP1 SWAP2 KECCAK256 DUP3 SLOAD PUSH1 0x2 SWAP1 SWAP3 MUL ADD DUP1 SLOAD PUSH1 0x1 PUSH1 0x1 PUSH1 0xA0 SHL SUB SWAP1 SWAP3 AND PUSH1 0x1 PUSH1 0x1 PUSH1 0xA0 SHL SUB NOT DUP4 AND DUP2 OR DUP3 SSTORE DUP4 SLOAD PUSH1 0x1 PUSH1 0x1 PUSH1 0xE0 SHL SUB NOT SWAP1 SWAP4 AND OR PUSH1 0x1 PUSH1 0xA0 SHL SWAP3 DUP4 SWAP1 DIV PUSH1 0x1 PUSH1 0x1 PUSH1 0x40 SHL SUB AND SWAP1 SWAP3 MUL SWAP2 SWAP1 SWAP2 OR DUP2 SSTORE PUSH1 0x1 DUP1 DUP3 ADD SWAP1 PUSH2 0x129C SWAP1 DUP5 ADD DUP3 PUSH2 0x2BE2 JUMP JUMPDEST POP SWAP1 POP POP DUP1 DUP1 PUSH2 0x12AB SWAP1 PUSH2 0x2CBC JUMP JUMPDEST SWAP2 POP POP PUSH2 0x11DF JUMP JUMPDEST POP DUP1 DUP3 PUSH1 0x0 DUP2 SLOAD DUP2 LT PUSH2 0x12C8 JUMPI PUSH2 0x12C8 PUSH2 0x2BCC JUMP JUMPDEST PUSH1 0x0 SWAP2 DUP3 MSTORE PUSH1 0x20 SWAP2 DUP3 SWAP1 KECCAK256 DUP4 MLOAD PUSH1 0x2 SWAP1 SWAP3 MUL ADD DUP1 SLOAD SWAP3 DUP5 ADD MLOAD PUSH1 0x1 PUSH1 0x1 PUSH1 0x40 SHL SUB AND PUSH1 0x1 PUSH1 0xA0 SHL MUL PUSH1 0x1 PUSH1 0x1 PUSH1 0xE0 SHL SUB NOT SWAP1 SWAP4 AND PUSH1 0x1 PUSH1 0x1 PUSH1 0xA0 SHL SUB SWAP1 SWAP3 AND SWAP2 SWAP1 SWAP2 OR SWAP2 SWAP1 SWAP2 OR DUP2 SSTORE PUSH1 0x40 DUP3 ADD MLOAD PUSH1 0x1 DUP3 ADD SWAP1 PUSH2 0x1325 SWAP1 DUP3 PUSH2 0x2AFA JUMP JUMPDEST POP SWAP1 POP POP PUSH2 0x1396 JUMP JUMPDEST DUP2 SLOAD PUSH1 0x1 DUP2 DUP2 ADD DUP5 SSTORE PUSH1 0x0 DUP5 DUP2 MSTORE PUSH1 0x20 SWAP1 DUP2 SWAP1 KECCAK256 DUP5 MLOAD PUSH1 0x2 SWAP1 SWAP5 MUL ADD DUP1 SLOAD SWAP2 DUP6 ADD MLOAD PUSH1 0x1 PUSH1 0x1 PUSH1 0x40 SHL SUB AND PUSH1 0x1 PUSH1 0xA0 SHL MUL PUSH1 0x1 PUSH1 0x1 PUSH1 0xE0 SHL SUB NOT SWAP1 SWAP3 AND PUSH1 0x1 PUSH1 0x1 PUSH1 0xA0 SHL SUB SWAP1 SWAP5 AND SWAP4 SWAP1 SWAP4 OR OR DUP3 SSTORE PUSH1 0x40 DUP4 ADD MLOAD DUP4 SWAP3 SWAP2 DUP3 ADD SWAP1 PUSH2 0x1392 SWAP1 DUP3 PUSH2 0x2AFA JUMP JUMPDEST POP POP POP JUMPDEST POP POP PUSH2 0x1670 JUMP JUMPDEST PUSH1 0x1 SLOAD PUSH3 0x10000 SWAP1 DIV PUSH1 0xFF AND ISZERO PUSH2 0x14CB JUMPI PUSH1 0x40 MLOAD DUP1 PUSH1 0x60 ADD PUSH1 0x40 MSTORE DUP1 DUP5 DUP5 SWAP1 POP PUSH1 0x1 PUSH1 0x1 PUSH1 0x40 SHL SUB AND DUP2 MSTORE PUSH1 0x20 ADD DUP8 PUSH1 0x1 PUSH1 0x1 PUSH1 0xA0 SHL SUB AND DUP2 MSTORE PUSH1 0x20 ADD DUP5 DUP5 PUSH1 0x40 MLOAD PUSH2 0x13EA SWAP3 SWAP2 SWAP1 PUSH2 0x2935 JUMP JUMPDEST PUSH1 0x40 DUP1 MLOAD SWAP2 DUP3 SWAP1 SUB SWAP1 SWAP2 KECCAK256 SWAP1 SWAP2 MSTORE PUSH2 0xFFFF DUP12 AND PUSH1 0x0 SWAP1 DUP2 MSTORE PUSH1 0xA PUSH1 0x20 MSTORE DUP2 SWAP1 KECCAK256 SWAP1 MLOAD PUSH2 0x1419 SWAP1 DUP12 SWAP1 DUP12 SWAP1 PUSH2 0x2935 JUMP JUMPDEST SWAP1 DUP2 MSTORE PUSH1 0x40 DUP1 MLOAD SWAP2 DUP3 SWAP1 SUB PUSH1 0x20 SWAP1 DUP2 ADD DUP4 KECCAK256 DUP5 MLOAD DUP2 SLOAD DUP7 DUP5 ADD MLOAD PUSH1 0x1 PUSH1 0x1 PUSH1 0xA0 SHL SUB AND PUSH1 0x1 PUSH1 0x40 SHL MUL PUSH1 0x1 PUSH1 0x1 PUSH1 0xE0 SHL SUB NOT SWAP1 SWAP2 AND PUSH1 0x1 PUSH1 0x1 PUSH1 0x40 SHL SUB SWAP1 SWAP3 AND SWAP2 SWAP1 SWAP2 OR OR DUP2 SSTORE SWAP4 DUP3 ADD MLOAD PUSH1 0x1 SWAP1 SWAP5 ADD SWAP4 SWAP1 SWAP4 SSTORE SWAP2 DUP2 ADD DUP3 MSTORE PUSH1 0x0 DUP2 MSTORE SWAP1 MLOAD PUSH32 0xF9E4D95B62F08222D612B5AB92039CD8FBBBEA550A95E8DF9F927436BBDF5DB SWAP2 PUSH2 0x14B2 SWAP2 DUP13 SWAP2 DUP13 SWAP2 DUP13 SWAP2 DUP13 SWAP2 DUP13 SWAP2 DUP12 SWAP2 DUP12 SWAP2 SWAP1 PUSH2 0x2CD5 JUMP JUMPDEST PUSH1 0x40 MLOAD DUP1 SWAP2 SUB SWAP1 LOG1 PUSH1 0x1 DUP1 SLOAD PUSH3 0xFF0000 NOT AND SWAP1 SSTORE PUSH2 0x1670 JUMP JUMPDEST PUSH1 0x40 MLOAD PUSH3 0x1D3567 PUSH1 0xE0 SHL DUP2 MSTORE PUSH1 0x1 PUSH1 0x1 PUSH1 0xA0 SHL SUB DUP8 AND SWAP1 PUSH3 0x1D3567 SWAP1 DUP7 SWAP1 PUSH2 0x1501 SWAP1 DUP14 SWAP1 DUP14 SWAP1 DUP14 SWAP1 DUP13 SWAP1 DUP12 SWAP1 DUP12 SWAP1 PUSH1 0x4 ADD PUSH2 0x29EF JUMP JUMPDEST PUSH1 0x0 PUSH1 0x40 MLOAD DUP1 DUP4 SUB DUP2 PUSH1 0x0 DUP9 DUP1 EXTCODESIZE ISZERO DUP1 ISZERO PUSH2 0x151B JUMPI PUSH1 0x0 DUP1 REVERT JUMPDEST POP DUP8 CALL SWAP4 POP POP POP POP DUP1 ISZERO PUSH2 0x152D JUMPI POP PUSH1 0x1 JUMPDEST PUSH2 0x1670 JUMPI RETURNDATASIZE DUP1 DUP1 ISZERO PUSH2 0x155B JUMPI PUSH1 0x40 MLOAD SWAP2 POP PUSH1 0x1F NOT PUSH1 0x3F RETURNDATASIZE ADD AND DUP3 ADD PUSH1 0x40 MSTORE RETURNDATASIZE DUP3 MSTORE RETURNDATASIZE PUSH1 0x0 PUSH1 0x20 DUP5 ADD RETURNDATACOPY PUSH2 0x1560 JUMP JUMPDEST PUSH1 0x60 SWAP2 POP JUMPDEST POP PUSH1 0x40 MLOAD DUP1 PUSH1 0x60 ADD PUSH1 0x40 MSTORE DUP1 DUP6 DUP6 SWAP1 POP PUSH1 0x1 PUSH1 0x1 PUSH1 0x40 SHL SUB AND DUP2 MSTORE PUSH1 0x20 ADD DUP9 PUSH1 0x1 PUSH1 0x1 PUSH1 0xA0 SHL SUB AND DUP2 MSTORE PUSH1 0x20 ADD DUP6 DUP6 PUSH1 0x40 MLOAD PUSH2 0x159D SWAP3 SWAP2 SWAP1 PUSH2 0x2935 JUMP JUMPDEST PUSH1 0x40 DUP1 MLOAD SWAP2 DUP3 SWAP1 SUB SWAP1 SWAP2 KECCAK256 SWAP1 SWAP2 MSTORE PUSH2 0xFFFF DUP13 AND PUSH1 0x0 SWAP1 DUP2 MSTORE PUSH1 0xA PUSH1 0x20 MSTORE DUP2 SWAP1 KECCAK256 SWAP1 MLOAD PUSH2 0x15CC SWAP1 DUP13 SWAP1 DUP13 SWAP1 PUSH2 0x2935 JUMP JUMPDEST SWAP1 DUP2 MSTORE PUSH1 0x40 DUP1 MLOAD SWAP2 DUP3 SWAP1 SUB PUSH1 0x20 SWAP1 DUP2 ADD DUP4 KECCAK256 DUP5 MLOAD DUP2 SLOAD SWAP3 DUP7 ADD MLOAD PUSH1 0x1 PUSH1 0x1 PUSH1 0xA0 SHL SUB AND PUSH1 0x1 PUSH1 0x40 SHL MUL PUSH1 0x1 PUSH1 0x1 PUSH1 0xE0 SHL SUB NOT SWAP1 SWAP4 AND PUSH1 0x1 PUSH1 0x1 PUSH1 0x40 SHL SUB SWAP1 SWAP2 AND OR SWAP2 SWAP1 SWAP2 OR DUP2 SSTORE SWAP3 ADD MLOAD PUSH1 0x1 SWAP1 SWAP3 ADD SWAP2 SWAP1 SWAP2 SSTORE PUSH32 0xF9E4D95B62F08222D612B5AB92039CD8FBBBEA550A95E8DF9F927436BBDF5DB SWAP1 PUSH2 0x165A SWAP1 DUP13 SWAP1 DUP13 SWAP1 DUP13 SWAP1 DUP13 SWAP1 DUP13 SWAP1 DUP12 SWAP1 DUP12 SWAP1 DUP11 SWAP1 PUSH2 0x2CD5 JUMP JUMPDEST PUSH1 0x40 MLOAD DUP1 SWAP2 SUB SWAP1 LOG1 POP PUSH1 0x1 DUP1 SLOAD PUSH3 0xFF0000 NOT AND SWAP1 SSTORE JUMPDEST POP POP PUSH1 0xC DUP1 SLOAD PUSH2 0xFF00 NOT AND PUSH2 0x100 OR SWAP1 SSTORE POP POP POP POP POP POP POP JUMP JUMPDEST PUSH1 0xC SLOAD PUSH1 0xFF AND PUSH1 0x1 EQ PUSH2 0x16E9 JUMPI PUSH1 0x40 MLOAD PUSH3 0x461BCD PUSH1 0xE5 SHL DUP2 MSTORE PUSH1 0x20 PUSH1 0x4 DUP3 ADD MSTORE PUSH1 0x21 PUSH1 0x24 DUP3 ADD MSTORE PUSH32 0x4C617965725A65726F4D6F636B3A206E6F2073656E64207265656E7472616E63 PUSH1 0x44 DUP3 ADD MSTORE PUSH1 0x79 PUSH1 0xF8 SHL PUSH1 0x64 DUP3 ADD MSTORE PUSH1 0x84 ADD PUSH2 0xC00 JUMP JUMPDEST PUSH1 0xC DUP1 SLOAD PUSH1 0xFF NOT AND PUSH1 0x2 OR SWAP1 SSTORE DUP6 MLOAD PUSH1 0x28 EQ PUSH2 0x175C JUMPI PUSH1 0x40 MLOAD PUSH3 0x461BCD PUSH1 0xE5 SHL DUP2 MSTORE PUSH1 0x20 PUSH1 0x4 DUP3 ADD MSTORE PUSH1 0x2C PUSH1 0x24 DUP3 ADD MSTORE PUSH32 0x4C617965725A65726F4D6F636B3A20696E636F72726563742072656D6F746520 PUSH1 0x44 DUP3 ADD MSTORE PUSH12 0x616464726573732073697A65 PUSH1 0xA0 SHL PUSH1 0x64 DUP3 ADD MSTORE PUSH1 0x84 ADD PUSH2 0xC00 JUMP JUMPDEST PUSH1 0x14 DUP7 ADD MLOAD PUSH1 0x1 PUSH1 0x1 PUSH1 0xA0 SHL SUB DUP1 DUP3 AND PUSH1 0x0 SWAP1 DUP2 MSTORE PUSH1 0x20 DUP2 SWAP1 MSTORE PUSH1 0x40 SWAP1 KECCAK256 SLOAD AND DUP1 PUSH2 0x17EF JUMPI PUSH1 0x40 MLOAD PUSH3 0x461BCD PUSH1 0xE5 SHL DUP2 MSTORE PUSH1 0x20 PUSH1 0x4 DUP3 ADD MSTORE PUSH1 0x37 PUSH1 0x24 DUP3 ADD MSTORE PUSH32 0x4C617965725A65726F4D6F636B3A2064657374696E6174696F6E204C61796572 PUSH1 0x44 DUP3 ADD MSTORE PUSH32 0x5A65726F20456E64706F696E74206E6F7420666F756E64000000000000000000 PUSH1 0x64 DUP3 ADD MSTORE PUSH1 0x84 ADD PUSH2 0xC00 JUMP JUMPDEST PUSH1 0x0 DUP1 DUP5 MLOAD GT PUSH2 0x1889 JUMPI PUSH1 0x7 DUP1 SLOAD PUSH2 0x1806 SWAP1 PUSH2 0x2945 JUMP JUMPDEST DUP1 PUSH1 0x1F ADD PUSH1 0x20 DUP1 SWAP2 DIV MUL PUSH1 0x20 ADD PUSH1 0x40 MLOAD SWAP1 DUP2 ADD PUSH1 0x40 MSTORE DUP1 SWAP3 SWAP2 SWAP1 DUP2 DUP2 MSTORE PUSH1 0x20 ADD DUP3 DUP1 SLOAD PUSH2 0x1832 SWAP1 PUSH2 0x2945 JUMP JUMPDEST DUP1 ISZERO PUSH2 0x187F JUMPI DUP1 PUSH1 0x1F LT PUSH2 0x1854 JUMPI PUSH2 0x100 DUP1 DUP4 SLOAD DIV MUL DUP4 MSTORE SWAP2 PUSH1 0x20 ADD SWAP2 PUSH2 0x187F JUMP JUMPDEST DUP3 ADD SWAP2 SWAP1 PUSH1 0x0 MSTORE PUSH1 0x20 PUSH1 0x0 KECCAK256 SWAP1 JUMPDEST DUP2 SLOAD DUP2 MSTORE SWAP1 PUSH1 0x1 ADD SWAP1 PUSH1 0x20 ADD DUP1 DUP4 GT PUSH2 0x1862 JUMPI DUP3 SWAP1 SUB PUSH1 0x1F AND DUP3 ADD SWAP2 JUMPDEST POP POP POP POP POP PUSH2 0x188B JUMP JUMPDEST DUP4 JUMPDEST SWAP1 POP PUSH1 0x0 PUSH2 0x18DC DUP12 CALLER DUP12 DUP12 DUP1 DUP1 PUSH1 0x1F ADD PUSH1 0x20 DUP1 SWAP2 DIV MUL PUSH1 0x20 ADD PUSH1 0x40 MLOAD SWAP1 DUP2 ADD PUSH1 0x40 MSTORE DUP1 SWAP4 SWAP3 SWAP2 SWAP1 DUP2 DUP2 MSTORE PUSH1 0x20 ADD DUP4 DUP4 DUP1 DUP3 DUP5 CALLDATACOPY PUSH1 0x0 SWAP3 ADD SWAP2 SWAP1 SWAP2 MSTORE POP POP POP POP PUSH1 0x1 PUSH1 0x1 PUSH1 0xA0 SHL SUB DUP11 AND ISZERO ISZERO DUP7 PUSH2 0xA7F JUMP JUMPDEST POP SWAP1 POP DUP1 CALLVALUE LT ISZERO PUSH2 0x1941 JUMPI PUSH1 0x40 MLOAD PUSH3 0x461BCD PUSH1 0xE5 SHL DUP2 MSTORE PUSH1 0x20 PUSH1 0x4 DUP3 ADD MSTORE PUSH1 0x29 PUSH1 0x24 DUP3 ADD MSTORE PUSH32 0x4C617965725A65726F4D6F636B3A206E6F7420656E6F756768206E6174697665 PUSH1 0x44 DUP3 ADD MSTORE PUSH9 0x20666F722066656573 PUSH1 0xB8 SHL PUSH1 0x64 DUP3 ADD MSTORE PUSH1 0x84 ADD PUSH2 0xC00 JUMP JUMPDEST PUSH2 0xFFFF DUP12 AND PUSH1 0x0 SWAP1 DUP2 MSTORE PUSH1 0x9 PUSH1 0x20 SWAP1 DUP2 MSTORE PUSH1 0x40 DUP1 DUP4 KECCAK256 CALLER DUP5 MSTORE SWAP1 SWAP2 MSTORE DUP2 KECCAK256 DUP1 SLOAD DUP3 SWAP1 PUSH2 0x1975 SWAP1 PUSH1 0x1 PUSH1 0x1 PUSH1 0x40 SHL SUB AND PUSH2 0x2A85 JUMP JUMPDEST SWAP2 SWAP1 PUSH2 0x100 EXP DUP2 SLOAD DUP2 PUSH1 0x1 PUSH1 0x1 PUSH1 0x40 SHL SUB MUL NOT AND SWAP1 DUP4 PUSH1 0x1 PUSH1 0x1 PUSH1 0x40 SHL SUB AND MUL OR SWAP1 SSTORE SWAP1 POP PUSH1 0x0 DUP3 CALLVALUE PUSH2 0x19A8 SWAP2 SWAP1 PUSH2 0x2BB9 JUMP JUMPDEST SWAP1 POP DUP1 ISZERO PUSH2 0x1A55 JUMPI PUSH1 0x0 DUP10 PUSH1 0x1 PUSH1 0x1 PUSH1 0xA0 SHL SUB AND DUP3 PUSH1 0x40 MLOAD PUSH1 0x0 PUSH1 0x40 MLOAD DUP1 DUP4 SUB DUP2 DUP6 DUP8 GAS CALL SWAP3 POP POP POP RETURNDATASIZE DUP1 PUSH1 0x0 DUP2 EQ PUSH2 0x19FD JUMPI PUSH1 0x40 MLOAD SWAP2 POP PUSH1 0x1F NOT PUSH1 0x3F RETURNDATASIZE ADD AND DUP3 ADD PUSH1 0x40 MSTORE RETURNDATASIZE DUP3 MSTORE RETURNDATASIZE PUSH1 0x0 PUSH1 0x20 DUP5 ADD RETURNDATACOPY PUSH2 0x1A02 JUMP JUMPDEST PUSH1 0x60 SWAP2 POP JUMPDEST POP POP SWAP1 POP DUP1 PUSH2 0x1A53 JUMPI PUSH1 0x40 MLOAD PUSH3 0x461BCD PUSH1 0xE5 SHL DUP2 MSTORE PUSH1 0x20 PUSH1 0x4 DUP3 ADD MSTORE PUSH1 0x1F PUSH1 0x24 DUP3 ADD MSTORE PUSH32 0x4C617965725A65726F4D6F636B3A206661696C656420746F20726566756E6400 PUSH1 0x44 DUP3 ADD MSTORE PUSH1 0x64 ADD PUSH2 0xC00 JUMP JUMPDEST POP JUMPDEST PUSH1 0x0 DUP1 PUSH1 0x0 PUSH2 0x1A63 DUP8 PUSH2 0x2047 JUMP JUMPDEST SWAP2 SWAP6 POP SWAP4 POP SWAP2 POP POP DUP2 ISZERO PUSH2 0x1B05 JUMPI PUSH1 0x0 DUP2 PUSH1 0x1 PUSH1 0x1 PUSH1 0xA0 SHL SUB AND DUP4 PUSH1 0x40 MLOAD PUSH1 0x0 PUSH1 0x40 MLOAD DUP1 DUP4 SUB DUP2 DUP6 DUP8 GAS CALL SWAP3 POP POP POP RETURNDATASIZE DUP1 PUSH1 0x0 DUP2 EQ PUSH2 0x1ABE JUMPI PUSH1 0x40 MLOAD SWAP2 POP PUSH1 0x1F NOT PUSH1 0x3F RETURNDATASIZE ADD AND DUP3 ADD PUSH1 0x40 MSTORE RETURNDATASIZE DUP3 MSTORE RETURNDATASIZE PUSH1 0x0 PUSH1 0x20 DUP5 ADD RETURNDATACOPY PUSH2 0x1AC3 JUMP JUMPDEST PUSH1 0x60 SWAP2 POP JUMPDEST POP POP SWAP1 POP DUP1 PUSH2 0x1B03 JUMPI PUSH1 0x40 MLOAD DUP4 SWAP1 PUSH1 0x1 PUSH1 0x1 PUSH1 0xA0 SHL SUB DUP5 AND SWAP1 PUSH32 0x2C7A964CA3DE5EC1D42D9822F9BBD0EB142A59CC9F855E9D93813B773192C7A3 SWAP1 PUSH1 0x0 SWAP1 LOG3 JUMPDEST POP JUMPDEST PUSH1 0x40 MLOAD PUSH12 0xFFFFFFFFFFFFFFFFFFFFFFFF NOT CALLER PUSH1 0x60 SWAP1 DUP2 SHL DUP3 AND PUSH1 0x20 DUP5 ADD MSTORE DUP12 SWAP1 SHL AND PUSH1 0x34 DUP3 ADD MSTORE PUSH1 0x0 SWAP1 PUSH1 0x48 ADD PUSH1 0x40 MLOAD PUSH1 0x20 DUP2 DUP4 SUB SUB DUP2 MSTORE SWAP1 PUSH1 0x40 MSTORE SWAP1 POP PUSH1 0x0 DUP16 DUP16 DUP1 DUP1 PUSH1 0x1F ADD PUSH1 0x20 DUP1 SWAP2 DIV MUL PUSH1 0x20 ADD PUSH1 0x40 MLOAD SWAP1 DUP2 ADD PUSH1 0x40 MSTORE DUP1 SWAP4 SWAP3 SWAP2 SWAP1 DUP2 DUP2 MSTORE PUSH1 0x20 ADD DUP4 DUP4 DUP1 DUP3 DUP5 CALLDATACOPY PUSH1 0x0 DUP2 DUP5 ADD MSTORE PUSH1 0x1F NOT PUSH1 0x1F DUP3 ADD AND SWAP1 POP DUP1 DUP4 ADD SWAP3 POP POP POP POP POP POP POP SWAP1 POP DUP10 PUSH1 0x1 PUSH1 0x1 PUSH1 0xA0 SHL SUB AND PUSH4 0xC2FA4813 PUSH1 0x1 PUSH1 0x0 SWAP1 SLOAD SWAP1 PUSH2 0x100 EXP SWAP1 DIV PUSH2 0xFFFF AND DUP5 DUP15 DUP12 DUP11 DUP8 PUSH1 0x40 MLOAD DUP8 PUSH4 0xFFFFFFFF AND PUSH1 0xE0 SHL DUP2 MSTORE PUSH1 0x4 ADD PUSH2 0x1BD2 SWAP7 SWAP6 SWAP5 SWAP4 SWAP3 SWAP2 SWAP1 PUSH2 0x2D47 JUMP JUMPDEST PUSH1 0x0 PUSH1 0x40 MLOAD DUP1 DUP4 SUB DUP2 PUSH1 0x0 DUP8 DUP1 EXTCODESIZE ISZERO DUP1 ISZERO PUSH2 0x1BEC JUMPI PUSH1 0x0 DUP1 REVERT JUMPDEST POP GAS CALL ISZERO DUP1 ISZERO PUSH2 0x1C00 JUMPI RETURNDATASIZE PUSH1 0x0 DUP1 RETURNDATACOPY RETURNDATASIZE PUSH1 0x0 REVERT JUMPDEST POP POP PUSH1 0xC DUP1 SLOAD PUSH1 0xFF NOT AND PUSH1 0x1 OR SWAP1 SSTORE POP POP POP POP POP POP POP POP POP POP POP POP POP POP POP POP POP POP POP POP JUMP JUMPDEST PUSH1 0x7 PUSH2 0x1C31 DUP3 DUP3 PUSH2 0x2AFA JUMP JUMPDEST POP POP JUMP JUMPDEST PUSH2 0xFFFF DUP4 AND PUSH1 0x0 SWAP1 DUP2 MSTORE PUSH1 0x8 PUSH1 0x20 MSTORE PUSH1 0x40 DUP1 DUP3 KECCAK256 SWAP1 MLOAD PUSH2 0x1C58 SWAP1 DUP6 SWAP1 DUP6 SWAP1 PUSH2 0x2935 JUMP JUMPDEST SWAP1 DUP2 MSTORE PUSH1 0x40 MLOAD SWAP1 DUP2 SWAP1 SUB PUSH1 0x20 ADD SWAP1 KECCAK256 SLOAD PUSH1 0x1 PUSH1 0x1 PUSH1 0x40 SHL SUB AND SWAP1 POP SWAP4 SWAP3 POP POP POP JUMP JUMPDEST PUSH1 0x0 DUP1 PUSH1 0x0 DUP1 PUSH2 0x1C89 DUP6 PUSH2 0x2047 JUMP JUMPDEST POP SWAP3 POP SWAP3 POP SWAP3 POP PUSH1 0x0 DUP4 PUSH2 0xFFFF AND PUSH1 0x2 SUB PUSH2 0x1D15 JUMPI PUSH1 0x3 SLOAD PUSH1 0x1 PUSH1 0x1 PUSH1 0x80 SHL SUB AND DUP3 GT ISZERO PUSH2 0x1D08 JUMPI PUSH1 0x40 MLOAD PUSH3 0x461BCD PUSH1 0xE5 SHL DUP2 MSTORE PUSH1 0x20 PUSH1 0x4 DUP3 ADD MSTORE PUSH1 0x26 PUSH1 0x24 DUP3 ADD MSTORE PUSH32 0x4C617965725A65726F4D6F636B3A206473744E6174697665416D7420746F6F20 PUSH1 0x44 DUP3 ADD MSTORE PUSH6 0x3630B933B29 PUSH1 0xD5 SHL PUSH1 0x64 DUP3 ADD MSTORE PUSH1 0x84 ADD PUSH2 0xC00 JUMP JUMPDEST PUSH2 0x1D12 DUP3 DUP3 PUSH2 0x2995 JUMP JUMPDEST SWAP1 POP JUMPDEST PUSH1 0x3 SLOAD PUSH1 0x0 SWAP1 PUSH2 0x1D36 SWAP1 DUP6 SWAP1 PUSH1 0x1 PUSH1 0x80 SHL SWAP1 DIV PUSH1 0x1 PUSH1 0x1 PUSH1 0x40 SHL SUB AND PUSH2 0x2995 JUMP JUMPDEST PUSH1 0x2 SLOAD PUSH2 0x1D53 SWAP2 SWAP1 PUSH1 0x1 PUSH1 0x80 SHL SWAP1 DIV PUSH1 0x1 PUSH1 0x1 PUSH1 0x80 SHL SUB AND PUSH2 0x2D9B JUMP JUMPDEST SWAP1 POP PUSH2 0x1D5F DUP2 DUP4 PUSH2 0x2995 JUMP JUMPDEST PUSH1 0x2 SLOAD SWAP1 SWAP3 POP PUSH1 0x0 SWAP1 PUSH5 0x2540BE400 SWAP1 PUSH2 0x1D82 SWAP1 PUSH1 0x1 PUSH1 0x1 PUSH1 0x80 SHL SUB AND DUP6 PUSH2 0x2D9B JUMP JUMPDEST PUSH2 0x1D8C SWAP2 SWAP1 PUSH2 0x2DC8 JUMP JUMPDEST PUSH1 0x2 SLOAD PUSH1 0x3 SLOAD SWAP2 SWAP3 POP PUSH1 0x0 SWAP2 PUSH5 0x2540BE400 SWAP2 PUSH1 0x1 PUSH1 0x1 PUSH1 0x80 SHL SUB DUP1 DUP3 AND SWAP3 PUSH2 0x1DCF SWAP3 PUSH1 0x1 PUSH1 0xC0 SHL SWAP1 SWAP2 DIV PUSH1 0x1 PUSH1 0x1 PUSH1 0x40 SHL SUB AND SWAP2 PUSH1 0x1 PUSH1 0x80 SHL SWAP1 SWAP2 DIV AND PUSH2 0x2DDC JUMP JUMPDEST PUSH2 0x1DD9 SWAP2 SWAP1 PUSH2 0x2DDC JUMP JUMPDEST PUSH2 0x1DE3 SWAP2 SWAP1 PUSH2 0x2E07 JUMP JUMPDEST PUSH1 0x1 PUSH1 0x1 PUSH1 0x80 SHL SUB AND SWAP1 POP PUSH2 0x1DF8 DUP2 DUP12 PUSH2 0x2D9B JUMP JUMPDEST PUSH2 0x1E02 SWAP1 DUP4 PUSH2 0x2995 JUMP JUMPDEST SWAP14 SWAP13 POP POP POP POP POP POP POP POP POP POP POP POP POP JUMP JUMPDEST PUSH1 0x0 DUP4 ISZERO PUSH2 0x1E24 JUMPI POP PUSH1 0x4 SLOAD PUSH2 0x8ED JUMP JUMPDEST PUSH1 0x5 SLOAD PUSH2 0x2710 SWAP1 PUSH2 0x1E35 DUP5 DUP7 PUSH2 0x2995 JUMP JUMPDEST PUSH2 0x1E3F SWAP2 SWAP1 PUSH2 0x2D9B JUMP JUMPDEST PUSH2 0x1E49 SWAP2 SWAP1 PUSH2 0x2DC8 JUMP JUMPDEST SWAP1 POP PUSH2 0x8ED JUMP JUMPDEST PUSH2 0xFFFF DUP4 AND PUSH1 0x0 SWAP1 DUP2 MSTORE PUSH1 0xB PUSH1 0x20 MSTORE PUSH1 0x40 DUP1 DUP3 KECCAK256 SWAP1 MLOAD PUSH2 0x1E73 SWAP1 DUP6 SWAP1 DUP6 SWAP1 PUSH2 0x2935 JUMP JUMPDEST SWAP1 DUP2 MSTORE PUSH1 0x20 ADD PUSH1 0x40 MLOAD DUP1 SWAP2 SUB SWAP1 KECCAK256 SWAP1 POP JUMPDEST DUP1 SLOAD ISZERO PUSH2 0x7C6 JUMPI DUP1 SLOAD PUSH1 0x0 SWAP1 DUP3 SWAP1 PUSH2 0x1E9E SWAP1 PUSH1 0x1 SWAP1 PUSH2 0x2BB9 JUMP JUMPDEST DUP2 SLOAD DUP2 LT PUSH2 0x1EAE JUMPI PUSH2 0x1EAE PUSH2 0x2BCC JUMP JUMPDEST PUSH1 0x0 SWAP2 DUP3 MSTORE PUSH1 0x20 SWAP2 DUP3 SWAP1 KECCAK256 PUSH1 0x40 DUP1 MLOAD PUSH1 0x60 DUP2 ADD DUP3 MSTORE PUSH1 0x2 SWAP1 SWAP4 MUL SWAP1 SWAP2 ADD DUP1 SLOAD PUSH1 0x1 PUSH1 0x1 PUSH1 0xA0 SHL SUB DUP2 AND DUP5 MSTORE PUSH1 0x1 PUSH1 0x1 PUSH1 0x40 SHL SUB PUSH1 0x1 PUSH1 0xA0 SHL SWAP1 SWAP2 DIV AND SWAP4 DUP4 ADD SWAP4 SWAP1 SWAP4 MSTORE PUSH1 0x1 DUP4 ADD DUP1 SLOAD SWAP3 SWAP4 SWAP3 SWAP2 DUP5 ADD SWAP2 PUSH2 0x1F07 SWAP1 PUSH2 0x2945 JUMP JUMPDEST DUP1 PUSH1 0x1F ADD PUSH1 0x20 DUP1 SWAP2 DIV MUL PUSH1 0x20 ADD PUSH1 0x40 MLOAD SWAP1 DUP2 ADD PUSH1 0x40 MSTORE DUP1 SWAP3 SWAP2 SWAP1 DUP2 DUP2 MSTORE PUSH1 0x20 ADD DUP3 DUP1 SLOAD PUSH2 0x1F33 SWAP1 PUSH2 0x2945 JUMP JUMPDEST DUP1 ISZERO PUSH2 0x1F80 JUMPI DUP1 PUSH1 0x1F LT PUSH2 0x1F55 JUMPI PUSH2 0x100 DUP1 DUP4 SLOAD DIV MUL DUP4 MSTORE SWAP2 PUSH1 0x20 ADD SWAP2 PUSH2 0x1F80 JUMP JUMPDEST DUP3 ADD SWAP2 SWAP1 PUSH1 0x0 MSTORE PUSH1 0x20 PUSH1 0x0 KECCAK256 SWAP1 JUMPDEST DUP2 SLOAD DUP2 MSTORE SWAP1 PUSH1 0x1 ADD SWAP1 PUSH1 0x20 ADD DUP1 DUP4 GT PUSH2 0x1F63 JUMPI DUP3 SWAP1 SUB PUSH1 0x1F AND DUP3 ADD SWAP2 JUMPDEST POP POP POP POP POP DUP2 MSTORE POP POP SWAP1 POP DUP1 PUSH1 0x0 ADD MLOAD PUSH1 0x1 PUSH1 0x1 PUSH1 0xA0 SHL SUB AND PUSH3 0x1D3567 DUP7 DUP7 DUP7 DUP6 PUSH1 0x20 ADD MLOAD DUP7 PUSH1 0x40 ADD MLOAD PUSH1 0x40 MLOAD DUP7 PUSH4 0xFFFFFFFF AND PUSH1 0xE0 SHL DUP2 MSTORE PUSH1 0x4 ADD PUSH2 0x1FCA SWAP6 SWAP5 SWAP4 SWAP3 SWAP2 SWAP1 PUSH2 0x2E2D JUMP JUMPDEST PUSH1 0x0 PUSH1 0x40 MLOAD DUP1 DUP4 SUB DUP2 PUSH1 0x0 DUP8 DUP1 EXTCODESIZE ISZERO DUP1 ISZERO PUSH2 0x1FE4 JUMPI PUSH1 0x0 DUP1 REVERT JUMPDEST POP GAS CALL ISZERO DUP1 ISZERO PUSH2 0x1FF8 JUMPI RETURNDATASIZE PUSH1 0x0 DUP1 RETURNDATACOPY RETURNDATASIZE PUSH1 0x0 REVERT JUMPDEST POP POP POP POP DUP2 DUP1 SLOAD DUP1 PUSH2 0x200C JUMPI PUSH2 0x200C PUSH2 0x2E78 JUMP JUMPDEST PUSH1 0x0 DUP3 DUP2 MSTORE PUSH1 0x20 DUP2 KECCAK256 PUSH1 0x2 PUSH1 0x0 NOT SWAP1 SWAP4 ADD SWAP3 DUP4 MUL ADD DUP1 SLOAD PUSH1 0x1 PUSH1 0x1 PUSH1 0xE0 SHL SUB NOT AND DUP2 SSTORE SWAP1 PUSH2 0x203D PUSH1 0x1 DUP4 ADD DUP3 PUSH2 0x2166 JUMP JUMPDEST POP POP SWAP1 SSTORE POP PUSH2 0x1E84 JUMP JUMPDEST PUSH1 0x0 DUP1 PUSH1 0x0 DUP1 DUP5 MLOAD PUSH1 0x22 EQ DUP1 PUSH2 0x205E JUMPI POP PUSH1 0x42 DUP6 MLOAD GT JUMPDEST PUSH2 0x20A2 JUMPI PUSH1 0x40 MLOAD PUSH3 0x461BCD PUSH1 0xE5 SHL DUP2 MSTORE PUSH1 0x20 PUSH1 0x4 DUP3 ADD MSTORE PUSH1 0x15 PUSH1 0x24 DUP3 ADD MSTORE PUSH21 0x496E76616C69642061646170746572506172616D73 PUSH1 0x58 SHL PUSH1 0x44 DUP3 ADD MSTORE PUSH1 0x64 ADD PUSH2 0xC00 JUMP JUMPDEST PUSH1 0x2 DUP6 ADD MLOAD SWAP4 POP PUSH1 0x22 DUP6 ADD MLOAD SWAP3 POP DUP4 PUSH2 0xFFFF AND PUSH1 0x1 EQ DUP1 PUSH2 0x20C7 JUMPI POP DUP4 PUSH2 0xFFFF AND PUSH1 0x2 EQ JUMPDEST PUSH2 0x2108 JUMPI PUSH1 0x40 MLOAD PUSH3 0x461BCD PUSH1 0xE5 SHL DUP2 MSTORE PUSH1 0x20 PUSH1 0x4 DUP3 ADD MSTORE PUSH1 0x12 PUSH1 0x24 DUP3 ADD MSTORE PUSH18 0x556E737570706F7274656420747854797065 PUSH1 0x70 SHL PUSH1 0x44 DUP3 ADD MSTORE PUSH1 0x64 ADD PUSH2 0xC00 JUMP JUMPDEST PUSH1 0x0 DUP4 GT PUSH2 0x2146 JUMPI PUSH1 0x40 MLOAD PUSH3 0x461BCD PUSH1 0xE5 SHL DUP2 MSTORE PUSH1 0x20 PUSH1 0x4 DUP3 ADD MSTORE PUSH1 0xB PUSH1 0x24 DUP3 ADD MSTORE PUSH11 0x47617320746F6F206C6F77 PUSH1 0xA8 SHL PUSH1 0x44 DUP3 ADD MSTORE PUSH1 0x64 ADD PUSH2 0xC00 JUMP JUMPDEST DUP4 PUSH2 0xFFFF AND PUSH1 0x2 SUB PUSH2 0x215F JUMPI POP POP PUSH1 0x42 DUP4 ADD MLOAD PUSH1 0x56 DUP5 ADD MLOAD JUMPDEST SWAP2 SWAP4 POP SWAP2 SWAP4 JUMP JUMPDEST POP DUP1 SLOAD PUSH2 0x2172 SWAP1 PUSH2 0x2945 JUMP JUMPDEST PUSH1 0x0 DUP3 SSTORE DUP1 PUSH1 0x1F LT PUSH2 0x2182 JUMPI POP POP JUMP JUMPDEST PUSH1 0x1F ADD PUSH1 0x20 SWAP1 DIV SWAP1 PUSH1 0x0 MSTORE PUSH1 0x20 PUSH1 0x0 KECCAK256 SWAP1 DUP2 ADD SWAP1 PUSH2 0x26F SWAP2 SWAP1 JUMPDEST DUP1 DUP3 GT ISZERO PUSH2 0x21B0 JUMPI PUSH1 0x0 DUP2 SSTORE PUSH1 0x1 ADD PUSH2 0x219C JUMP JUMPDEST POP SWAP1 JUMP JUMPDEST DUP1 CALLDATALOAD PUSH2 0xFFFF DUP2 AND DUP2 EQ PUSH2 0x21C6 JUMPI PUSH1 0x0 DUP1 REVERT JUMPDEST SWAP2 SWAP1 POP JUMP JUMPDEST PUSH1 0x0 PUSH1 0x20 DUP3 DUP5 SUB SLT ISZERO PUSH2 0x21DD JUMPI PUSH1 0x0 DUP1 REVERT JUMPDEST PUSH2 0x8ED DUP3 PUSH2 0x21B4 JUMP JUMPDEST PUSH1 0x1 PUSH1 0x1 PUSH1 0xA0 SHL SUB DUP2 AND DUP2 EQ PUSH2 0x26F JUMPI PUSH1 0x0 DUP1 REVERT JUMPDEST PUSH1 0x0 PUSH1 0x20 DUP3 DUP5 SUB SLT ISZERO PUSH2 0x220D JUMPI PUSH1 0x0 DUP1 REVERT JUMPDEST DUP2 CALLDATALOAD PUSH2 0x8ED DUP2 PUSH2 0x21E6 JUMP JUMPDEST PUSH1 0x0 DUP1 DUP4 PUSH1 0x1F DUP5 ADD SLT PUSH2 0x222A JUMPI PUSH1 0x0 DUP1 REVERT JUMPDEST POP DUP2 CALLDATALOAD PUSH1 0x1 PUSH1 0x1 PUSH1 0x40 SHL SUB DUP2 GT ISZERO PUSH2 0x2241 JUMPI PUSH1 0x0 DUP1 REVERT JUMPDEST PUSH1 0x20 DUP4 ADD SWAP2 POP DUP4 PUSH1 0x20 DUP3 DUP6 ADD ADD GT ISZERO PUSH2 0x2259 JUMPI PUSH1 0x0 DUP1 REVERT JUMPDEST SWAP3 POP SWAP3 SWAP1 POP JUMP JUMPDEST PUSH1 0x0 DUP1 PUSH1 0x0 PUSH1 0x40 DUP5 DUP7 SUB SLT ISZERO PUSH2 0x2275 JUMPI PUSH1 0x0 DUP1 REVERT JUMPDEST PUSH2 0x227E DUP5 PUSH2 0x21B4 JUMP JUMPDEST SWAP3 POP PUSH1 0x20 DUP5 ADD CALLDATALOAD PUSH1 0x1 PUSH1 0x1 PUSH1 0x40 SHL SUB DUP2 GT ISZERO PUSH2 0x2299 JUMPI PUSH1 0x0 DUP1 REVERT JUMPDEST PUSH2 0x22A5 DUP7 DUP3 DUP8 ADD PUSH2 0x2218 JUMP JUMPDEST SWAP5 SWAP8 SWAP1 SWAP7 POP SWAP4 SWAP5 POP POP POP POP JUMP JUMPDEST PUSH4 0x4E487B71 PUSH1 0xE0 SHL PUSH1 0x0 MSTORE PUSH1 0x41 PUSH1 0x4 MSTORE PUSH1 0x24 PUSH1 0x0 REVERT JUMPDEST PUSH1 0x0 DUP3 PUSH1 0x1F DUP4 ADD SLT PUSH2 0x22D9 JUMPI PUSH1 0x0 DUP1 REVERT JUMPDEST DUP2 CALLDATALOAD PUSH1 0x1 PUSH1 0x1 PUSH1 0x40 SHL SUB DUP1 DUP3 GT ISZERO PUSH2 0x22F3 JUMPI PUSH2 0x22F3 PUSH2 0x22B2 JUMP JUMPDEST PUSH1 0x40 MLOAD PUSH1 0x1F DUP4 ADD PUSH1 0x1F NOT SWAP1 DUP2 AND PUSH1 0x3F ADD AND DUP2 ADD SWAP1 DUP3 DUP3 GT DUP2 DUP4 LT OR ISZERO PUSH2 0x231B JUMPI PUSH2 0x231B PUSH2 0x22B2 JUMP JUMPDEST DUP2 PUSH1 0x40 MSTORE DUP4 DUP2 MSTORE DUP7 PUSH1 0x20 DUP6 DUP9 ADD ADD GT ISZERO PUSH2 0x2334 JUMPI PUSH1 0x0 DUP1 REVERT JUMPDEST DUP4 PUSH1 0x20 DUP8 ADD PUSH1 0x20 DUP4 ADD CALLDATACOPY PUSH1 0x0 PUSH1 0x20 DUP6 DUP4 ADD ADD MSTORE DUP1 SWAP5 POP POP POP POP POP SWAP3 SWAP2 POP POP JUMP JUMPDEST PUSH1 0x0 DUP1 PUSH1 0x0 PUSH1 0x60 DUP5 DUP7 SUB SLT ISZERO PUSH2 0x2369 JUMPI PUSH1 0x0 DUP1 REVERT JUMPDEST PUSH2 0x2372 DUP5 PUSH2 0x21B4 JUMP JUMPDEST SWAP3 POP PUSH1 0x20 DUP5 ADD CALLDATALOAD PUSH1 0x1 PUSH1 0x1 PUSH1 0x40 SHL SUB DUP2 GT ISZERO PUSH2 0x238D JUMPI PUSH1 0x0 DUP1 REVERT JUMPDEST PUSH2 0x2399 DUP7 DUP3 DUP8 ADD PUSH2 0x22C8 JUMP JUMPDEST SWAP3 POP POP PUSH1 0x40 DUP5 ADD CALLDATALOAD SWAP1 POP SWAP3 POP SWAP3 POP SWAP3 JUMP JUMPDEST PUSH1 0x0 DUP2 MLOAD DUP1 DUP5 MSTORE PUSH1 0x0 JUMPDEST DUP2 DUP2 LT ISZERO PUSH2 0x23D0 JUMPI PUSH1 0x20 DUP2 DUP6 ADD DUP2 ADD MLOAD DUP7 DUP4 ADD DUP3 ADD MSTORE ADD PUSH2 0x23B4 JUMP JUMPDEST POP PUSH1 0x0 PUSH1 0x20 DUP3 DUP7 ADD ADD MSTORE PUSH1 0x20 PUSH1 0x1F NOT PUSH1 0x1F DUP4 ADD AND DUP6 ADD ADD SWAP2 POP POP SWAP3 SWAP2 POP POP JUMP JUMPDEST PUSH1 0x1 PUSH1 0x1 PUSH1 0xA0 SHL SUB DUP5 AND DUP2 MSTORE PUSH1 0x1 PUSH1 0x1 PUSH1 0x40 SHL SUB DUP4 AND PUSH1 0x20 DUP3 ADD MSTORE PUSH1 0x60 PUSH1 0x40 DUP3 ADD DUP2 SWAP1 MSTORE PUSH1 0x0 SWAP1 PUSH2 0x2423 SWAP1 DUP4 ADD DUP5 PUSH2 0x23AA JUMP JUMPDEST SWAP6 SWAP5 POP POP POP POP POP JUMP JUMPDEST PUSH1 0x0 DUP1 PUSH1 0x40 DUP4 DUP6 SUB SLT ISZERO PUSH2 0x243F JUMPI PUSH1 0x0 DUP1 REVERT JUMPDEST POP POP DUP1 CALLDATALOAD SWAP3 PUSH1 0x20 SWAP1 SWAP2 ADD CALLDATALOAD SWAP2 POP JUMP JUMPDEST PUSH1 0x20 DUP2 MSTORE PUSH1 0x0 PUSH2 0x8ED PUSH1 0x20 DUP4 ADD DUP5 PUSH2 0x23AA JUMP JUMPDEST DUP1 CALLDATALOAD PUSH1 0x1 PUSH1 0x1 PUSH1 0x80 SHL SUB DUP2 AND DUP2 EQ PUSH2 0x21C6 JUMPI PUSH1 0x0 DUP1 REVERT JUMPDEST DUP1 CALLDATALOAD PUSH1 0x1 PUSH1 0x1 PUSH1 0x40 SHL SUB DUP2 AND DUP2 EQ PUSH2 0x21C6 JUMPI PUSH1 0x0 DUP1 REVERT JUMPDEST PUSH1 0x0 DUP1 PUSH1 0x0 DUP1 PUSH1 0x0 PUSH1 0xA0 DUP7 DUP9 SUB SLT ISZERO PUSH2 0x24A7 JUMPI PUSH1 0x0 DUP1 REVERT JUMPDEST PUSH2 0x24B0 DUP7 PUSH2 0x2461 JUMP JUMPDEST SWAP5 POP PUSH2 0x24BE PUSH1 0x20 DUP8 ADD PUSH2 0x2461 JUMP JUMPDEST SWAP4 POP PUSH2 0x24CC PUSH1 0x40 DUP8 ADD PUSH2 0x2461 JUMP JUMPDEST SWAP3 POP PUSH2 0x24DA PUSH1 0x60 DUP8 ADD PUSH2 0x2478 JUMP JUMPDEST SWAP2 POP PUSH2 0x24E8 PUSH1 0x80 DUP8 ADD PUSH2 0x2478 JUMP JUMPDEST SWAP1 POP SWAP3 SWAP6 POP SWAP3 SWAP6 SWAP1 SWAP4 POP JUMP JUMPDEST PUSH1 0x0 DUP1 PUSH1 0x0 DUP1 PUSH1 0x0 PUSH1 0xA0 DUP7 DUP9 SUB SLT ISZERO PUSH2 0x250C JUMPI PUSH1 0x0 DUP1 REVERT JUMPDEST PUSH2 0x2515 DUP7 PUSH2 0x21B4 JUMP JUMPDEST SWAP5 POP PUSH1 0x20 DUP7 ADD CALLDATALOAD PUSH2 0x2525 DUP2 PUSH2 0x21E6 JUMP JUMPDEST SWAP4 POP PUSH1 0x40 DUP7 ADD CALLDATALOAD PUSH1 0x1 PUSH1 0x1 PUSH1 0x40 SHL SUB DUP1 DUP3 GT ISZERO PUSH2 0x2541 JUMPI PUSH1 0x0 DUP1 REVERT JUMPDEST PUSH2 0x254D DUP10 DUP4 DUP11 ADD PUSH2 0x22C8 JUMP JUMPDEST SWAP5 POP PUSH1 0x60 DUP9 ADD CALLDATALOAD SWAP2 POP DUP2 ISZERO ISZERO DUP3 EQ PUSH2 0x2564 JUMPI PUSH1 0x0 DUP1 REVERT JUMPDEST SWAP1 SWAP3 POP PUSH1 0x80 DUP8 ADD CALLDATALOAD SWAP1 DUP1 DUP3 GT ISZERO PUSH2 0x257A JUMPI PUSH1 0x0 DUP1 REVERT JUMPDEST POP PUSH2 0x2587 DUP9 DUP3 DUP10 ADD PUSH2 0x22C8 JUMP JUMPDEST SWAP2 POP POP SWAP3 SWAP6 POP SWAP3 SWAP6 SWAP1 SWAP4 POP JUMP JUMPDEST PUSH1 0x0 DUP1 PUSH1 0x40 DUP4 DUP6 SUB SLT ISZERO PUSH2 0x25A7 JUMPI PUSH1 0x0 DUP1 REVERT JUMPDEST PUSH2 0x25B0 DUP4 PUSH2 0x21B4 JUMP JUMPDEST SWAP2 POP PUSH1 0x20 DUP4 ADD CALLDATALOAD PUSH1 0x1 PUSH1 0x1 PUSH1 0x40 SHL SUB DUP2 GT ISZERO PUSH2 0x25CB JUMPI PUSH1 0x0 DUP1 REVERT JUMPDEST PUSH2 0x25D7 DUP6 DUP3 DUP7 ADD PUSH2 0x22C8 JUMP JUMPDEST SWAP2 POP POP SWAP3 POP SWAP3 SWAP1 POP JUMP JUMPDEST PUSH1 0x0 DUP1 PUSH1 0x40 DUP4 DUP6 SUB SLT ISZERO PUSH2 0x25F4 JUMPI PUSH1 0x0 DUP1 REVERT JUMPDEST PUSH2 0x25FD DUP4 PUSH2 0x21B4 JUMP JUMPDEST SWAP2 POP PUSH1 0x20 DUP4 ADD CALLDATALOAD PUSH2 0x260D DUP2 PUSH2 0x21E6 JUMP JUMPDEST DUP1 SWAP2 POP POP SWAP3 POP SWAP3 SWAP1 POP JUMP JUMPDEST PUSH1 0x0 DUP1 PUSH1 0x0 DUP1 PUSH1 0x0 PUSH1 0x60 DUP7 DUP9 SUB SLT ISZERO PUSH2 0x2630 JUMPI PUSH1 0x0 DUP1 REVERT JUMPDEST PUSH2 0x2639 DUP7 PUSH2 0x21B4 JUMP JUMPDEST SWAP5 POP PUSH1 0x20 DUP7 ADD CALLDATALOAD PUSH1 0x1 PUSH1 0x1 PUSH1 0x40 SHL SUB DUP1 DUP3 GT ISZERO PUSH2 0x2655 JUMPI PUSH1 0x0 DUP1 REVERT JUMPDEST PUSH2 0x2661 DUP10 DUP4 DUP11 ADD PUSH2 0x2218 JUMP JUMPDEST SWAP1 SWAP7 POP SWAP5 POP PUSH1 0x40 DUP9 ADD CALLDATALOAD SWAP2 POP DUP1 DUP3 GT ISZERO PUSH2 0x267A JUMPI PUSH1 0x0 DUP1 REVERT JUMPDEST POP PUSH2 0x2687 DUP9 DUP3 DUP10 ADD PUSH2 0x2218 JUMP JUMPDEST SWAP7 SWAP10 SWAP6 SWAP9 POP SWAP4 SWAP7 POP SWAP3 SWAP5 SWAP4 SWAP3 POP POP POP JUMP JUMPDEST PUSH1 0x0 PUSH1 0x20 DUP3 DUP5 SUB SLT ISZERO PUSH2 0x26AA JUMPI PUSH1 0x0 DUP1 REVERT JUMPDEST POP CALLDATALOAD SWAP2 SWAP1 POP JUMP JUMPDEST PUSH1 0x0 DUP1 PUSH1 0x40 DUP4 DUP6 SUB SLT ISZERO PUSH2 0x26C4 JUMPI PUSH1 0x0 DUP1 REVERT JUMPDEST DUP3 CALLDATALOAD PUSH2 0x25FD DUP2 PUSH2 0x21E6 JUMP JUMPDEST PUSH1 0x0 DUP1 PUSH1 0x0 DUP1 PUSH1 0x0 DUP1 PUSH1 0x0 DUP1 PUSH1 0xC0 DUP10 DUP12 SUB SLT ISZERO PUSH2 0x26EB JUMPI PUSH1 0x0 DUP1 REVERT JUMPDEST PUSH2 0x26F4 DUP10 PUSH2 0x21B4 JUMP JUMPDEST SWAP8 POP PUSH1 0x20 DUP10 ADD CALLDATALOAD PUSH1 0x1 PUSH1 0x1 PUSH1 0x40 SHL SUB DUP1 DUP3 GT ISZERO PUSH2 0x2710 JUMPI PUSH1 0x0 DUP1 REVERT JUMPDEST PUSH2 0x271C DUP13 DUP4 DUP14 ADD PUSH2 0x2218 JUMP JUMPDEST SWAP1 SWAP10 POP SWAP8 POP PUSH1 0x40 DUP12 ADD CALLDATALOAD SWAP2 POP PUSH2 0x2731 DUP3 PUSH2 0x21E6 JUMP JUMPDEST DUP2 SWAP7 POP PUSH2 0x2740 PUSH1 0x60 DUP13 ADD PUSH2 0x2478 JUMP JUMPDEST SWAP6 POP PUSH1 0x80 DUP12 ADD CALLDATALOAD SWAP5 POP PUSH1 0xA0 DUP12 ADD CALLDATALOAD SWAP2 POP DUP1 DUP3 GT ISZERO PUSH2 0x275D JUMPI PUSH1 0x0 DUP1 REVERT JUMPDEST POP PUSH2 0x276A DUP12 DUP3 DUP13 ADD PUSH2 0x2218 JUMP JUMPDEST SWAP10 SWAP13 SWAP9 SWAP12 POP SWAP7 SWAP10 POP SWAP5 SWAP8 SWAP4 SWAP7 SWAP3 SWAP6 SWAP5 POP POP POP JUMP JUMPDEST PUSH1 0x0 DUP1 PUSH1 0x0 DUP1 PUSH1 0x0 DUP1 PUSH1 0x0 PUSH1 0xC0 DUP9 DUP11 SUB SLT ISZERO PUSH2 0x2799 JUMPI PUSH1 0x0 DUP1 REVERT JUMPDEST PUSH2 0x27A2 DUP9 PUSH2 0x21B4 JUMP JUMPDEST SWAP7 POP PUSH1 0x20 DUP9 ADD CALLDATALOAD PUSH1 0x1 PUSH1 0x1 PUSH1 0x40 SHL SUB DUP1 DUP3 GT ISZERO PUSH2 0x27BE JUMPI PUSH1 0x0 DUP1 REVERT JUMPDEST PUSH2 0x27CA DUP12 DUP4 DUP13 ADD PUSH2 0x22C8 JUMP JUMPDEST SWAP8 POP PUSH1 0x40 DUP11 ADD CALLDATALOAD SWAP2 POP DUP1 DUP3 GT ISZERO PUSH2 0x27E0 JUMPI PUSH1 0x0 DUP1 REVERT JUMPDEST PUSH2 0x27EC DUP12 DUP4 DUP13 ADD PUSH2 0x2218 JUMP JUMPDEST SWAP1 SWAP8 POP SWAP6 POP PUSH1 0x60 DUP11 ADD CALLDATALOAD SWAP2 POP PUSH2 0x2801 DUP3 PUSH2 0x21E6 JUMP JUMPDEST SWAP1 SWAP4 POP PUSH1 0x80 DUP10 ADD CALLDATALOAD SWAP1 PUSH2 0x2813 DUP3 PUSH2 0x21E6 JUMP JUMPDEST SWAP1 SWAP3 POP PUSH1 0xA0 DUP10 ADD CALLDATALOAD SWAP1 DUP1 DUP3 GT ISZERO PUSH2 0x2829 JUMPI PUSH1 0x0 DUP1 REVERT JUMPDEST POP PUSH2 0x2836 DUP11 DUP3 DUP12 ADD PUSH2 0x22C8 JUMP JUMPDEST SWAP2 POP POP SWAP3 SWAP6 SWAP9 SWAP2 SWAP5 SWAP8 POP SWAP3 SWAP6 POP JUMP JUMPDEST PUSH1 0x0 DUP1 PUSH1 0x0 DUP1 PUSH1 0x80 DUP6 DUP8 SUB SLT ISZERO PUSH2 0x285B JUMPI PUSH1 0x0 DUP1 REVERT JUMPDEST PUSH2 0x2864 DUP6 PUSH2 0x21B4 JUMP JUMPDEST SWAP4 POP PUSH2 0x2872 PUSH1 0x20 DUP7 ADD PUSH2 0x21B4 JUMP JUMPDEST SWAP3 POP PUSH1 0x40 DUP6 ADD CALLDATALOAD SWAP2 POP PUSH1 0x60 DUP6 ADD CALLDATALOAD PUSH1 0x1 PUSH1 0x1 PUSH1 0x40 SHL SUB DUP2 GT ISZERO PUSH2 0x2894 JUMPI PUSH1 0x0 DUP1 REVERT JUMPDEST PUSH2 0x28A0 DUP8 DUP3 DUP9 ADD PUSH2 0x22C8 JUMP JUMPDEST SWAP2 POP POP SWAP3 SWAP6 SWAP2 SWAP5 POP SWAP3 POP JUMP JUMPDEST PUSH1 0x0 DUP1 PUSH1 0x0 DUP1 PUSH1 0x80 DUP6 DUP8 SUB SLT ISZERO PUSH2 0x28C2 JUMPI PUSH1 0x0 DUP1 REVERT JUMPDEST PUSH2 0x28CB DUP6 PUSH2 0x21B4 JUMP JUMPDEST SWAP4 POP PUSH2 0x28D9 PUSH1 0x20 DUP7 ADD PUSH2 0x21B4 JUMP JUMPDEST SWAP3 POP PUSH1 0x40 DUP6 ADD CALLDATALOAD PUSH2 0x28E9 DUP2 PUSH2 0x21E6 JUMP JUMPDEST SWAP4 SWAP7 SWAP3 SWAP6 POP SWAP3 SWAP4 PUSH1 0x60 ADD CALLDATALOAD SWAP3 POP POP JUMP JUMPDEST PUSH1 0x0 PUSH1 0x20 DUP3 DUP5 SUB SLT ISZERO PUSH2 0x290B JUMPI PUSH1 0x0 DUP1 REVERT JUMPDEST DUP2 CALLDATALOAD PUSH1 0x1 PUSH1 0x1 PUSH1 0x40 SHL SUB DUP2 GT ISZERO PUSH2 0x2921 JUMPI PUSH1 0x0 DUP1 REVERT JUMPDEST PUSH2 0x292D DUP5 DUP3 DUP6 ADD PUSH2 0x22C8 JUMP JUMPDEST SWAP5 SWAP4 POP POP POP POP JUMP JUMPDEST DUP2 DUP4 DUP3 CALLDATACOPY PUSH1 0x0 SWAP2 ADD SWAP1 DUP2 MSTORE SWAP2 SWAP1 POP JUMP JUMPDEST PUSH1 0x1 DUP2 DUP2 SHR SWAP1 DUP3 AND DUP1 PUSH2 0x2959 JUMPI PUSH1 0x7F DUP3 AND SWAP2 POP JUMPDEST PUSH1 0x20 DUP3 LT DUP2 SUB PUSH2 0x2979 JUMPI PUSH4 0x4E487B71 PUSH1 0xE0 SHL PUSH1 0x0 MSTORE PUSH1 0x22 PUSH1 0x4 MSTORE PUSH1 0x24 PUSH1 0x0 REVERT JUMPDEST POP SWAP2 SWAP1 POP JUMP JUMPDEST PUSH4 0x4E487B71 PUSH1 0xE0 SHL PUSH1 0x0 MSTORE PUSH1 0x11 PUSH1 0x4 MSTORE PUSH1 0x24 PUSH1 0x0 REVERT JUMPDEST DUP1 DUP3 ADD DUP1 DUP3 GT ISZERO PUSH2 0xCF7 JUMPI PUSH2 0xCF7 PUSH2 0x297F JUMP JUMPDEST DUP2 DUP4 MSTORE DUP2 DUP2 PUSH1 0x20 DUP6 ADD CALLDATACOPY POP PUSH1 0x0 DUP3 DUP3 ADD PUSH1 0x20 SWAP1 DUP2 ADD SWAP2 SWAP1 SWAP2 MSTORE PUSH1 0x1F SWAP1 SWAP2 ADD PUSH1 0x1F NOT AND SWAP1 SWAP2 ADD ADD SWAP1 JUMP JUMPDEST PUSH2 0xFFFF DUP5 AND DUP2 MSTORE PUSH1 0x40 PUSH1 0x20 DUP3 ADD MSTORE PUSH1 0x0 PUSH2 0x2423 PUSH1 0x40 DUP4 ADD DUP5 DUP7 PUSH2 0x29A8 JUMP JUMPDEST PUSH2 0xFFFF DUP8 AND DUP2 MSTORE PUSH1 0x80 PUSH1 0x20 DUP3 ADD MSTORE PUSH1 0x0 PUSH2 0x2A0D PUSH1 0x80 DUP4 ADD DUP8 DUP10 PUSH2 0x29A8 JUMP JUMPDEST PUSH1 0x1 PUSH1 0x1 PUSH1 0x40 SHL SUB DUP7 AND PUSH1 0x40 DUP5 ADD MSTORE DUP3 DUP2 SUB PUSH1 0x60 DUP5 ADD MSTORE PUSH2 0x2A2F DUP2 DUP6 DUP8 PUSH2 0x29A8 JUMP JUMPDEST SWAP10 SWAP9 POP POP POP POP POP POP POP POP POP JUMP JUMPDEST PUSH2 0xFFFF DUP7 AND DUP2 MSTORE PUSH1 0x80 PUSH1 0x20 DUP3 ADD MSTORE PUSH1 0x0 PUSH2 0x2A5A PUSH1 0x80 DUP4 ADD DUP7 DUP9 PUSH2 0x29A8 JUMP JUMPDEST PUSH1 0x1 PUSH1 0x1 PUSH1 0x40 SHL SUB SWAP5 SWAP1 SWAP5 AND PUSH1 0x40 DUP4 ADD MSTORE POP PUSH1 0x1 PUSH1 0x1 PUSH1 0xA0 SHL SUB SWAP2 SWAP1 SWAP2 AND PUSH1 0x60 SWAP1 SWAP2 ADD MSTORE SWAP4 SWAP3 POP POP POP JUMP JUMPDEST PUSH1 0x0 PUSH1 0x1 PUSH1 0x1 PUSH1 0x40 SHL SUB DUP1 DUP4 AND DUP2 DUP2 SUB PUSH2 0x2AA1 JUMPI PUSH2 0x2AA1 PUSH2 0x297F JUMP JUMPDEST PUSH1 0x1 ADD SWAP4 SWAP3 POP POP POP JUMP JUMPDEST PUSH1 0x1F DUP3 GT ISZERO PUSH2 0x2AF5 JUMPI PUSH1 0x0 DUP2 DUP2 MSTORE PUSH1 0x20 DUP2 KECCAK256 PUSH1 0x1F DUP6 ADD PUSH1 0x5 SHR DUP2 ADD PUSH1 0x20 DUP7 LT ISZERO PUSH2 0x2AD2 JUMPI POP DUP1 JUMPDEST PUSH1 0x1F DUP6 ADD PUSH1 0x5 SHR DUP3 ADD SWAP2 POP JUMPDEST DUP2 DUP2 LT ISZERO PUSH2 0x2AF1 JUMPI DUP3 DUP2 SSTORE PUSH1 0x1 ADD PUSH2 0x2ADE JUMP JUMPDEST POP POP POP JUMPDEST POP POP POP JUMP JUMPDEST DUP2 MLOAD PUSH1 0x1 PUSH1 0x1 PUSH1 0x40 SHL SUB DUP2 GT ISZERO PUSH2 0x2B13 JUMPI PUSH2 0x2B13 PUSH2 0x22B2 JUMP JUMPDEST PUSH2 0x2B27 DUP2 PUSH2 0x2B21 DUP5 SLOAD PUSH2 0x2945 JUMP JUMPDEST DUP5 PUSH2 0x2AAB JUMP JUMPDEST PUSH1 0x20 DUP1 PUSH1 0x1F DUP4 GT PUSH1 0x1 DUP2 EQ PUSH2 0x2B5C JUMPI PUSH1 0x0 DUP5 ISZERO PUSH2 0x2B44 JUMPI POP DUP6 DUP4 ADD MLOAD JUMPDEST PUSH1 0x0 NOT PUSH1 0x3 DUP7 SWAP1 SHL SHR NOT AND PUSH1 0x1 DUP6 SWAP1 SHL OR DUP6 SSTORE PUSH2 0x2AF1 JUMP JUMPDEST PUSH1 0x0 DUP6 DUP2 MSTORE PUSH1 0x20 DUP2 KECCAK256 PUSH1 0x1F NOT DUP7 AND SWAP2 JUMPDEST DUP3 DUP2 LT ISZERO PUSH2 0x2B8B JUMPI DUP9 DUP7 ADD MLOAD DUP3 SSTORE SWAP5 DUP5 ADD SWAP5 PUSH1 0x1 SWAP1 SWAP2 ADD SWAP1 DUP5 ADD PUSH2 0x2B6C JUMP JUMPDEST POP DUP6 DUP3 LT ISZERO PUSH2 0x2BA9 JUMPI DUP8 DUP6 ADD MLOAD PUSH1 0x0 NOT PUSH1 0x3 DUP9 SWAP1 SHL PUSH1 0xF8 AND SHR NOT AND DUP2 SSTORE JUMPDEST POP POP POP POP POP PUSH1 0x1 SWAP1 DUP2 SHL ADD SWAP1 SSTORE POP JUMP JUMPDEST DUP2 DUP2 SUB DUP2 DUP2 GT ISZERO PUSH2 0xCF7 JUMPI PUSH2 0xCF7 PUSH2 0x297F JUMP JUMPDEST PUSH4 0x4E487B71 PUSH1 0xE0 SHL PUSH1 0x0 MSTORE PUSH1 0x32 PUSH1 0x4 MSTORE PUSH1 0x24 PUSH1 0x0 REVERT JUMPDEST DUP2 DUP2 SUB PUSH2 0x2BED JUMPI POP POP JUMP JUMPDEST PUSH2 0x2BF7 DUP3 SLOAD PUSH2 0x2945 JUMP JUMPDEST PUSH1 0x1 PUSH1 0x1 PUSH1 0x40 SHL SUB DUP2 GT ISZERO PUSH2 0x2C0E JUMPI PUSH2 0x2C0E PUSH2 0x22B2 JUMP JUMPDEST PUSH2 0x2C1C DUP2 PUSH2 0x2B21 DUP5 SLOAD PUSH2 0x2945 JUMP JUMPDEST PUSH1 0x0 PUSH1 0x1F DUP3 GT PUSH1 0x1 DUP2 EQ PUSH2 0x2C50 JUMPI PUSH1 0x0 DUP4 ISZERO PUSH2 0x2C38 JUMPI POP DUP5 DUP3 ADD SLOAD JUMPDEST PUSH1 0x0 NOT PUSH1 0x3 DUP6 SWAP1 SHL SHR NOT AND PUSH1 0x1 DUP5 SWAP1 SHL OR DUP5 SSTORE PUSH2 0x2CB5 JUMP JUMPDEST PUSH1 0x0 DUP6 DUP2 MSTORE PUSH1 0x20 SWAP1 KECCAK256 PUSH1 0x1F NOT DUP5 AND SWAP1 PUSH1 0x0 DUP7 DUP2 MSTORE PUSH1 0x20 SWAP1 KECCAK256 DUP5 JUMPDEST DUP4 DUP2 LT ISZERO PUSH2 0x2C8A JUMPI DUP3 DUP7 ADD SLOAD DUP3 SSTORE PUSH1 0x1 SWAP6 DUP7 ADD SWAP6 SWAP1 SWAP2 ADD SWAP1 PUSH1 0x20 ADD PUSH2 0x2C6A JUMP JUMPDEST POP DUP6 DUP4 LT ISZERO PUSH2 0x2CA8 JUMPI DUP2 DUP6 ADD SLOAD PUSH1 0x0 NOT PUSH1 0x3 DUP9 SWAP1 SHL PUSH1 0xF8 AND SHR NOT AND DUP2 SSTORE JUMPDEST POP POP POP PUSH1 0x1 DUP4 PUSH1 0x1 SHL ADD DUP5 SSTORE JUMPDEST POP POP POP POP POP JUMP JUMPDEST PUSH1 0x0 PUSH1 0x1 DUP3 ADD PUSH2 0x2CCE JUMPI PUSH2 0x2CCE PUSH2 0x297F JUMP JUMPDEST POP PUSH1 0x1 ADD SWAP1 JUMP JUMPDEST PUSH2 0xFFFF DUP10 AND DUP2 MSTORE PUSH1 0xC0 PUSH1 0x20 DUP3 ADD MSTORE PUSH1 0x0 PUSH2 0x2CF3 PUSH1 0xC0 DUP4 ADD DUP10 DUP12 PUSH2 0x29A8 JUMP JUMPDEST PUSH1 0x1 PUSH1 0x1 PUSH1 0xA0 SHL SUB DUP9 AND PUSH1 0x40 DUP5 ADD MSTORE PUSH1 0x1 PUSH1 0x1 PUSH1 0x40 SHL SUB DUP8 AND PUSH1 0x60 DUP5 ADD MSTORE DUP3 DUP2 SUB PUSH1 0x80 DUP5 ADD MSTORE PUSH2 0x2D24 DUP2 DUP7 DUP9 PUSH2 0x29A8 JUMP JUMPDEST SWAP1 POP DUP3 DUP2 SUB PUSH1 0xA0 DUP5 ADD MSTORE PUSH2 0x2D38 DUP2 DUP6 PUSH2 0x23AA JUMP JUMPDEST SWAP12 SWAP11 POP POP POP POP POP POP POP POP POP POP POP JUMP JUMPDEST PUSH2 0xFFFF DUP8 AND DUP2 MSTORE PUSH1 0xC0 PUSH1 0x20 DUP3 ADD MSTORE PUSH1 0x0 PUSH2 0x2D64 PUSH1 0xC0 DUP4 ADD DUP9 PUSH2 0x23AA JUMP JUMPDEST PUSH1 0x1 PUSH1 0x1 PUSH1 0xA0 SHL SUB DUP8 AND PUSH1 0x40 DUP5 ADD MSTORE PUSH1 0x1 PUSH1 0x1 PUSH1 0x40 SHL SUB DUP7 AND PUSH1 0x60 DUP5 ADD MSTORE PUSH1 0x80 DUP4 ADD DUP6 SWAP1 MSTORE DUP3 DUP2 SUB PUSH1 0xA0 DUP5 ADD MSTORE PUSH2 0x2A2F DUP2 DUP6 PUSH2 0x23AA JUMP JUMPDEST DUP1 DUP3 MUL DUP2 ISZERO DUP3 DUP3 DIV DUP5 EQ OR PUSH2 0xCF7 JUMPI PUSH2 0xCF7 PUSH2 0x297F JUMP JUMPDEST PUSH4 0x4E487B71 PUSH1 0xE0 SHL PUSH1 0x0 MSTORE PUSH1 0x12 PUSH1 0x4 MSTORE PUSH1 0x24 PUSH1 0x0 REVERT JUMPDEST PUSH1 0x0 DUP3 PUSH2 0x2DD7 JUMPI PUSH2 0x2DD7 PUSH2 0x2DB2 JUMP JUMPDEST POP DIV SWAP1 JUMP JUMPDEST PUSH1 0x1 PUSH1 0x1 PUSH1 0x80 SHL SUB DUP2 DUP2 AND DUP4 DUP3 AND MUL DUP1 DUP3 AND SWAP2 SWAP1 DUP3 DUP2 EQ PUSH2 0x2DFF JUMPI PUSH2 0x2DFF PUSH2 0x297F JUMP JUMPDEST POP POP SWAP3 SWAP2 POP POP JUMP JUMPDEST PUSH1 0x0 PUSH1 0x1 PUSH1 0x1 PUSH1 0x80 SHL SUB DUP1 DUP5 AND DUP1 PUSH2 0x2E21 JUMPI PUSH2 0x2E21 PUSH2 0x2DB2 JUMP JUMPDEST SWAP3 AND SWAP2 SWAP1 SWAP2 DIV SWAP3 SWAP2 POP POP JUMP JUMPDEST PUSH2 0xFFFF DUP7 AND DUP2 MSTORE PUSH1 0x80 PUSH1 0x20 DUP3 ADD MSTORE PUSH1 0x0 PUSH2 0x2E4B PUSH1 0x80 DUP4 ADD DUP7 DUP9 PUSH2 0x29A8 JUMP JUMPDEST PUSH1 0x1 PUSH1 0x1 PUSH1 0x40 SHL SUB DUP6 AND PUSH1 0x40 DUP5 ADD MSTORE DUP3 DUP2 SUB PUSH1 0x60 DUP5 ADD MSTORE PUSH2 0x2E6C DUP2 DUP6 PUSH2 0x23AA JUMP JUMPDEST SWAP9 SWAP8 POP POP POP POP POP POP POP POP JUMP JUMPDEST PUSH4 0x4E487B71 PUSH1 0xE0 SHL PUSH1 0x0 MSTORE PUSH1 0x31 PUSH1 0x4 MSTORE PUSH1 0x24 PUSH1 0x0 REVERT INVALID LOG2 PUSH5 0x6970667358 0x22 SLT KECCAK256 0xFC 0xD7 0xBA 0x2C PUSH20 0xA398675676DC636F7D9FCD1F0C0FED865A358DAD DUP11 0xE7 0xAA 0xB1 DUP5 0xE2 COINBASE PUSH5 0x736F6C6343 STOP ADDMOD EQ STOP CALLER "},"gasEstimates":{"creation":{"codeDepositCost":"2394400","executionCost":"infinite","totalCost":"infinite"},"external":{"blockNextMsg()":"24445","defaultAdapterParams()":"infinite","estimateFees(uint16,address,bytes,bool,bytes)":"infinite","forceResumeReceive(uint16,bytes)":"infinite","getChainId()":"2353","getConfig(uint16,uint16,address,uint256)":"infinite","getInboundNonce(uint16,bytes)":"infinite","getLengthOfQueue(uint16,bytes)":"infinite","getOutboundNonce(uint16,address)":"2855","getReceiveLibraryAddress(address)":"414","getReceiveVersion(address)":"469","getSendLibraryAddress(address)":"437","getSendVersion(address)":"449","hasStoredPayload(uint16,bytes)":"infinite","inboundNonce(uint16,bytes)":"infinite","isReceivingPayload()":"2369","isSendingPayload()":"2357","lzEndpointLookup(address)":"2688","mockChainId()":"2446","msgsToDeliver(uint16,bytes,uint256)":"infinite","nextMsgBlocked()":"2389","oracleFee()":"2383","outboundNonce(uint16,address)":"2831","protocolFeeConfig()":"4464","receivePayload(uint16,bytes,address,uint64,uint256,bytes)":"infinite","relayerFeeConfig()":"4807","retryPayload(uint16,bytes,bytes)":"infinite","send(uint16,bytes,bytes,address,address,bytes)":"infinite","setConfig(uint16,uint16,uint256,bytes)":"infinite","setDefaultAdapterParams(bytes)":"infinite","setDestLzEndpoint(address,address)":"infinite","setOracleFee(uint256)":"22357","setProtocolFee(uint256,uint256)":"44537","setReceiveVersion(uint16)":"326","setRelayerPrice(uint128,uint128,uint128,uint64,uint64)":"infinite","setSendVersion(uint16)":"349","storedPayload(uint16,bytes)":"infinite"},"internal":{"_clearMsgQue(uint16,bytes calldata)":"infinite","_getProtocolFees(bool,uint256,uint256)":"infinite","_getRelayerFee(uint16,uint16,address,uint256,bytes memory)":"infinite"}},"methodIdentifiers":{"blockNextMsg()":"d23104f1","defaultAdapterParams()":"272bd384","estimateFees(uint16,address,bytes,bool,bytes)":"40a7bb10","forceResumeReceive(uint16,bytes)":"42d65a8d","getChainId()":"3408e470","getConfig(uint16,uint16,address,uint256)":"f5ecbdbc","getInboundNonce(uint16,bytes)":"fdc07c70","getLengthOfQueue(uint16,bytes)":"7f6df8e6","getOutboundNonce(uint16,address)":"7a145748","getReceiveLibraryAddress(address)":"71ba2fd6","getReceiveVersion(address)":"da1a7c9a","getSendLibraryAddress(address)":"9c729da1","getSendVersion(address)":"096568f6","hasStoredPayload(uint16,bytes)":"0eaf6ea6","inboundNonce(uint16,bytes)":"9924d33b","isReceivingPayload()":"ca066b35","isSendingPayload()":"e97a448a","lzEndpointLookup(address)":"c81b383a","mockChainId()":"db14f305","msgsToDeliver(uint16,bytes,uint256)":"12a9ee6b","nextMsgBlocked()":"3e0dd83e","oracleFee()":"f9cd3ceb","outboundNonce(uint16,address)":"b2086499","protocolFeeConfig()":"07d3277f","receivePayload(uint16,bytes,address,uint64,uint256,bytes)":"c2fa4813","relayerFeeConfig()":"907c5e7e","retryPayload(uint16,bytes,bytes)":"aaff5f16","send(uint16,bytes,bytes,address,address,bytes)":"c5803100","setConfig(uint16,uint16,uint256,bytes)":"cbed8b9c","setDefaultAdapterParams(bytes)":"fbba623b","setDestLzEndpoint(address,address)":"c08f15a1","setOracleFee(uint256)":"b6d9ef60","setProtocolFee(uint256,uint256)":"240de277","setReceiveVersion(uint16)":"10ddb137","setRelayerPrice(uint128,uint128,uint128,uint64,uint64)":"2c365e25","setSendVersion(uint16)":"07e0db17","storedPayload(uint16,bytes)":"76a386dc"}},"storageLayout":{"storage":[{"astId":1788,"contract":"contracts/lzApp/mocks/LZEndpointMock.sol:LZEndpointMock","label":"lzEndpointLookup","offset":0,"slot":"0","type":"t_mapping(t_address,t_address)"},{"astId":1790,"contract":"contracts/lzApp/mocks/LZEndpointMock.sol:LZEndpointMock","label":"mockChainId","offset":0,"slot":"1","type":"t_uint16"},{"astId":1792,"contract":"contracts/lzApp/mocks/LZEndpointMock.sol:LZEndpointMock","label":"nextMsgBlocked","offset":2,"slot":"1","type":"t_bool"},{"astId":1795,"contract":"contracts/lzApp/mocks/LZEndpointMock.sol:LZEndpointMock","label":"relayerFeeConfig","offset":0,"slot":"2","type":"t_struct(RelayerFeeConfig)1851_storage"},{"astId":1798,"contract":"contracts/lzApp/mocks/LZEndpointMock.sol:LZEndpointMock","label":"protocolFeeConfig","offset":0,"slot":"4","type":"t_struct(ProtocolFeeConfig)1840_storage"},{"astId":1800,"contract":"contracts/lzApp/mocks/LZEndpointMock.sol:LZEndpointMock","label":"oracleFee","offset":0,"slot":"6","type":"t_uint256"},{"astId":1802,"contract":"contracts/lzApp/mocks/LZEndpointMock.sol:LZEndpointMock","label":"defaultAdapterParams","offset":0,"slot":"7","type":"t_bytes_storage"},{"astId":1808,"contract":"contracts/lzApp/mocks/LZEndpointMock.sol:LZEndpointMock","label":"inboundNonce","offset":0,"slot":"8","type":"t_mapping(t_uint16,t_mapping(t_bytes_memory_ptr,t_uint64))"},{"astId":1814,"contract":"contracts/lzApp/mocks/LZEndpointMock.sol:LZEndpointMock","label":"outboundNonce","offset":0,"slot":"9","type":"t_mapping(t_uint16,t_mapping(t_address,t_uint64))"},{"astId":1821,"contract":"contracts/lzApp/mocks/LZEndpointMock.sol:LZEndpointMock","label":"storedPayload","offset":0,"slot":"10","type":"t_mapping(t_uint16,t_mapping(t_bytes_memory_ptr,t_struct(StoredPayload)1858_storage))"},{"astId":1829,"contract":"contracts/lzApp/mocks/LZEndpointMock.sol:LZEndpointMock","label":"msgsToDeliver","offset":0,"slot":"11","type":"t_mapping(t_uint16,t_mapping(t_bytes_memory_ptr,t_array(t_struct(QueuedPayload)1865_storage)dyn_storage))"},{"astId":1832,"contract":"contracts/lzApp/mocks/LZEndpointMock.sol:LZEndpointMock","label":"_send_entered_state","offset":0,"slot":"12","type":"t_uint8"},{"astId":1835,"contract":"contracts/lzApp/mocks/LZEndpointMock.sol:LZEndpointMock","label":"_receive_entered_state","offset":1,"slot":"12","type":"t_uint8"}],"types":{"t_address":{"encoding":"inplace","label":"address","numberOfBytes":"20"},"t_array(t_struct(QueuedPayload)1865_storage)dyn_storage":{"base":"t_struct(QueuedPayload)1865_storage","encoding":"dynamic_array","label":"struct LZEndpointMock.QueuedPayload[]","numberOfBytes":"32"},"t_bool":{"encoding":"inplace","label":"bool","numberOfBytes":"1"},"t_bytes32":{"encoding":"inplace","label":"bytes32","numberOfBytes":"32"},"t_bytes_memory_ptr":{"encoding":"bytes","label":"bytes","numberOfBytes":"32"},"t_bytes_storage":{"encoding":"bytes","label":"bytes","numberOfBytes":"32"},"t_mapping(t_address,t_address)":{"encoding":"mapping","key":"t_address","label":"mapping(address => address)","numberOfBytes":"32","value":"t_address"},"t_mapping(t_address,t_uint64)":{"encoding":"mapping","key":"t_address","label":"mapping(address => uint64)","numberOfBytes":"32","value":"t_uint64"},"t_mapping(t_bytes_memory_ptr,t_array(t_struct(QueuedPayload)1865_storage)dyn_storage)":{"encoding":"mapping","key":"t_bytes_memory_ptr","label":"mapping(bytes => struct LZEndpointMock.QueuedPayload[])","numberOfBytes":"32","value":"t_array(t_struct(QueuedPayload)1865_storage)dyn_storage"},"t_mapping(t_bytes_memory_ptr,t_struct(StoredPayload)1858_storage)":{"encoding":"mapping","key":"t_bytes_memory_ptr","label":"mapping(bytes => struct LZEndpointMock.StoredPayload)","numberOfBytes":"32","value":"t_struct(StoredPayload)1858_storage"},"t_mapping(t_bytes_memory_ptr,t_uint64)":{"encoding":"mapping","key":"t_bytes_memory_ptr","label":"mapping(bytes => uint64)","numberOfBytes":"32","value":"t_uint64"},"t_mapping(t_uint16,t_mapping(t_address,t_uint64))":{"encoding":"mapping","key":"t_uint16","label":"mapping(uint16 => mapping(address => uint64))","numberOfBytes":"32","value":"t_mapping(t_address,t_uint64)"},"t_mapping(t_uint16,t_mapping(t_bytes_memory_ptr,t_array(t_struct(QueuedPayload)1865_storage)dyn_storage))":{"encoding":"mapping","key":"t_uint16","label":"mapping(uint16 => mapping(bytes => struct LZEndpointMock.QueuedPayload[]))","numberOfBytes":"32","value":"t_mapping(t_bytes_memory_ptr,t_array(t_struct(QueuedPayload)1865_storage)dyn_storage)"},"t_mapping(t_uint16,t_mapping(t_bytes_memory_ptr,t_struct(StoredPayload)1858_storage))":{"encoding":"mapping","key":"t_uint16","label":"mapping(uint16 => mapping(bytes => struct LZEndpointMock.StoredPayload))","numberOfBytes":"32","value":"t_mapping(t_bytes_memory_ptr,t_struct(StoredPayload)1858_storage)"},"t_mapping(t_uint16,t_mapping(t_bytes_memory_ptr,t_uint64))":{"encoding":"mapping","key":"t_uint16","label":"mapping(uint16 => mapping(bytes => uint64))","numberOfBytes":"32","value":"t_mapping(t_bytes_memory_ptr,t_uint64)"},"t_struct(ProtocolFeeConfig)1840_storage":{"encoding":"inplace","label":"struct LZEndpointMock.ProtocolFeeConfig","members":[{"astId":1837,"contract":"contracts/lzApp/mocks/LZEndpointMock.sol:LZEndpointMock","label":"zroFee","offset":0,"slot":"0","type":"t_uint256"},{"astId":1839,"contract":"contracts/lzApp/mocks/LZEndpointMock.sol:LZEndpointMock","label":"nativeBP","offset":0,"slot":"1","type":"t_uint256"}],"numberOfBytes":"64"},"t_struct(QueuedPayload)1865_storage":{"encoding":"inplace","label":"struct LZEndpointMock.QueuedPayload","members":[{"astId":1860,"contract":"contracts/lzApp/mocks/LZEndpointMock.sol:LZEndpointMock","label":"dstAddress","offset":0,"slot":"0","type":"t_address"},{"astId":1862,"contract":"contracts/lzApp/mocks/LZEndpointMock.sol:LZEndpointMock","label":"nonce","offset":20,"slot":"0","type":"t_uint64"},{"astId":1864,"contract":"contracts/lzApp/mocks/LZEndpointMock.sol:LZEndpointMock","label":"payload","offset":0,"slot":"1","type":"t_bytes_storage"}],"numberOfBytes":"64"},"t_struct(RelayerFeeConfig)1851_storage":{"encoding":"inplace","label":"struct LZEndpointMock.RelayerFeeConfig","members":[{"astId":1842,"contract":"contracts/lzApp/mocks/LZEndpointMock.sol:LZEndpointMock","label":"dstPriceRatio","offset":0,"slot":"0","type":"t_uint128"},{"astId":1844,"contract":"contracts/lzApp/mocks/LZEndpointMock.sol:LZEndpointMock","label":"dstGasPriceInWei","offset":16,"slot":"0","type":"t_uint128"},{"astId":1846,"contract":"contracts/lzApp/mocks/LZEndpointMock.sol:LZEndpointMock","label":"dstNativeAmtCap","offset":0,"slot":"1","type":"t_uint128"},{"astId":1848,"contract":"contracts/lzApp/mocks/LZEndpointMock.sol:LZEndpointMock","label":"baseGas","offset":16,"slot":"1","type":"t_uint64"},{"astId":1850,"contract":"contracts/lzApp/mocks/LZEndpointMock.sol:LZEndpointMock","label":"gasPerByte","offset":24,"slot":"1","type":"t_uint64"}],"numberOfBytes":"64"},"t_struct(StoredPayload)1858_storage":{"encoding":"inplace","label":"struct LZEndpointMock.StoredPayload","members":[{"astId":1853,"contract":"contracts/lzApp/mocks/LZEndpointMock.sol:LZEndpointMock","label":"payloadLength","offset":0,"slot":"0","type":"t_uint64"},{"astId":1855,"contract":"contracts/lzApp/mocks/LZEndpointMock.sol:LZEndpointMock","label":"dstAddress","offset":8,"slot":"0","type":"t_address"},{"astId":1857,"contract":"contracts/lzApp/mocks/LZEndpointMock.sol:LZEndpointMock","label":"payloadHash","offset":0,"slot":"1","type":"t_bytes32"}],"numberOfBytes":"64"},"t_uint128":{"encoding":"inplace","label":"uint128","numberOfBytes":"16"},"t_uint16":{"encoding":"inplace","label":"uint16","numberOfBytes":"2"},"t_uint256":{"encoding":"inplace","label":"uint256","numberOfBytes":"32"},"t_uint64":{"encoding":"inplace","label":"uint64","numberOfBytes":"8"},"t_uint8":{"encoding":"inplace","label":"uint8","numberOfBytes":"1"}}},"userdoc":{"kind":"user","methods":{},"version":1}}}}